:020000040800F2
:100000002004002045010008E5030008DD03000886
:10001000E1030008BD030008DD0500080000000042
:10002000000000000000000000000000FF030008C6
:10003000C103000800000000FD03000811050008CE
:100040005F0100085F0100085F0100085F01000810
:100050005F0100085F0100085F0100085F01000800
:100060005F0100085F0100085F0100085F010008F0
:100070005F0100085F0100085F0100085F010008E0
:100080005F0100085F0100085F0100085F010008D0
:100090005F0100085F0100085F0100085F010008C0
:1000A0005F0100085F0100085F0100085F010008B0
:1000B0005F010008750500085F0100085F01000886
:1000C0005F0100085F0100085F0100085F01000890
:1000D0005F0100085F0100085F0100085F01000880
:1000E0005F0100085F0100085F0100085F01000870
:1000F0005F0100085F0100085F0100085F01000860
:100100005F0100085F0100085F0100085F0100084F
:100110005F0100085F0100085F0100085F0100083F
:100120005F0100085F0100085F0100085F0100082F
:10013000DFF80CD000F030F90048004791060008C5
:10014000200400200648804706480047FEE7FEE7F7
:10015000FEE7FEE7FEE7FEE7FEE7FEE7FEE7FEE777
:100160001505000831010008F0B480EA0102D40F3F
:100170004200B2EB410F02D20246084611464A0045
:1001800042D0C30DDDB2C1F3C752AD1A202D35DA0E
:10019000C1F3160141F4000204B15242C5F1200638
:1001A00002FA06F12A411044B3EBD05F23D0C4B168
:1001B000012DA0EBC35009DCF0BC4FF0004202EA75
:1001C000C352DBB200F5000000F0B8B8400000F107
:1001D000807000EBC350A0F1807040EAD1704900FC
:1001E00009E0490841EAC071A0EBC35000F50000E6
:1001F000400800EBC350F0BC00F097B86142012208
:1002000002EB4101001BF6E7F0BC704781F00041B2
:10021000AAE780F00040A7E780EA010210B502F0EB
:100220000043400022D04A001FD0010E01EB1261B2
:10023000C0F35600C2F3560240F4000042F400023C
:10024000A0FB022000047F39140400D0401C50EAB7
:10025000124001D44000491EC2B20C0604EBD0107B
:10026000401C4008802A02D003E0002010BD20F08E
:100270000100002900DA0020184310BD30B480EAE4
:10028000010202F0004530F0004221F0004013D09E
:1002900090B1C30DD40DC2F31601C0F31600E41AD9
:1002A00041F4000140F400027D34914201D3641C0A
:1002B00000E04900002C02DA30BC002070474FF407
:1002C00000000023914201D3891A034340084FEAFA
:1002D0004101F7D151B1914202D14FF0004105E007
:1002E00002D24FF0010101E06FF0010103EBC450B5
:1002F000284430BC00F019B896230022114600F0C3
:100300001DB820F00040C10DC0F3160040F40000FD
:100310007F2901DA00207047962903DCC1F196019C
:10032000C84070479639884070470029A8BF704779
:10033000401C490008BF20F00100704710B4B0FA1B
:1003400080FC00FA0CF050EA010404BF10BC7047B6
:1003500049B1CCF1200421FA04F411FA0CF118BFD0
:10036000012121430843A3EB0C01CB1D4FEA00619F
:100370004FEA102042BF002010BC704700EBC35072
:1003800010440029A4BF10BC7047401C490008BF9E
:1003900020F0010010BC7047064C074D06E0E068F5
:1003A00040F0010394E8070098471034AC42F6D3BC
:1003B000FFF7C2FE88070008A807000800BFFEE795
:1003C00070470246002093680B400BB1012000E00B
:1003D00000207047416170470161704700BFFEE730
:1003E00000BFFEE77047000002490143024A116066
:1003F000704700000000FA050CED00E07047704700
:1004000010B500F001F810BD0CB50020019000906F
:100410003348006840F480303149086000BF3048FC
:10042000006800F4003000900198401C0190009892
:1004300018B90198B0F5A06FF1D12948006800F40F
:10044000003010B10120009001E0002000900098E1
:10045000012843D12348006840F01000214908607A
:100460000846006820F0030008600846006840F075
:10047000020008601A484068194948600846406808
:1004800048600846406840F480604860084640681C
:1004900020F47C1048600846406840F4E81048604A
:1004A0000846006840F08070086000BF0C48006893
:1004B00000F000700028F9D00948406820F00300DF
:1004C000074948600846406840F00200486000BFA5
:1004D0000348406800F00C000828F9D10CBD00006A
:1004E0000010024000200240042808D14FF0E02113
:1004F000096941F004014FF0E022116107E04FF07B
:10050000E021096921F004014FF0E02211617047F8
:100510007047000010B51348006840F00100114911
:10052000086008464068104908400E49486008467F
:1005300000680E4908400B4908600846006820F42E
:10054000802008600846406820F4FE0048604FF4B0
:100550001F008860FFF754FF4FF0006004490860F7
:1005600010BD0000001002400000FFF8FFFFF6FE83
:1005700008ED00E010B501210C4800F01EF8A0B114
:1005800001210A4800F016F84FF480710848FFF77F
:1005900018FF28B94FF480710548FFF71DFF04E0EC
:1005A0004FF480710248FFF715FF10BD00040040B2
:1005B000000C0140CA430282704730B50246002059
:1005C00000230024158A05EA0103958905EA010440
:1005D00013B10CB1012000E0002030BD00BFFEE7E8
:1005E000014A024900F013B8750600081400002003
:1005F00002E008C8121F08C1002AFAD170477047EC
:10060000002001E001C1121F002AFBD170472DE933
:10061000F04116460F460446002503E03946B04730
:10062000641C6D1C20780028F8D12846BDE8F081B4
:1006300010B56FF00400FFF757FF0A4800680A4939
:10064000B0FBF1F0094908700846007800EB400162
:10065000C1EBC0104FF6FF7101EAC00004490880E9
:1006600010BD00000000002000127A0018000020D9
:100670001A00002000BF054A128802F04002002A3A
:10068000F9D0C2B2014B1B1D1A80704700440040D4
:1006900000BFFFF7CDFF4FF4A060FFF7A5FE4FF4BA
:1006A0001651242000F008F802E002A0FFF798FF9E
:1006B000FBE70000610000002DE9F05F05460E46F3
:1006C0003001FFF719FE81462B4905FB01F0FFF7CA
:1006D00013FE82464946FFF7D1FD07463846FFF72D
:1006E00010FE84B22046FFF707FE83463946FFF727
:1006F00090FD82464FF08341FFF78EFD8146FFF764
:1007000000FE80464FF6FF7000EA041404EB080078
:1007100084B21A48806940F004001849886108468C
:10072000C06940F40030C8611548006820F47F407B
:10073000134908600846006840F40B4008600F4801
:10074000006940F400300D4908610846006920F452
:10075000003008610B480480001D008842F20C0143
:1007600008430849091D08800846008840F0200019
:100770000880BDE8F09F000040420F0000100240DA
:100780000008014008440040A807000800000020BD
:100790001C000000F0050008C40700081C00002031
:1007A000040400000006000800A24A040000000043
:1007B0000000000001020304060708090000000011
:0407C0000000000035
:0400000508000131BD
:00000001FF
