:020000022000DC
:10600000BC7A0120B1CE0200ADCE0200057C0400B6
:10601000ADCE0200ADCE0200ADCE02000000000009
:10602000000000000000000000000000ADCE0200F3
:10603000ADCE0200000000007DBE0500ADCE020026
:1060400081650200ADCE02007D85020095710200DF
:10605000A1710200ADCE0200919A02005D6C0200B7
:1060600095750200A9750200C175020065710200F4
:1060700039960200ADCE0200ADCE0200ADCE0200D8
:10608000ADCE020075710200ADCE0200ADCE0200B1
:10609000ADCE0200ADCE020025C90500ADCE020096
:1060A000ADCE0200ADCE0200D9750200F17502003E
:1060B000999002008D910200000000000000000095
:1060C000ADCE0200A9900200B99002004D7F0200FF
:1060D00085710200ADCE0200ADCE020045BC0500C8
:1060E000ADCE0200ADCE0200ADCE02000000000039
:1060F00000000000C990020000000000F97E0200CC
:1061000081F0004102E000BF83F0004330B54FEA68
:1061100041044FEA430594EA050F08BF90EA020FD5
:106120001FBF54EA000C55EA020C7FEA645C7FEA68
:10613000655C00F0E2804FEA5454D4EB5555B8BF8B
:106140006D420CDD2C4480EA020281EA030382EAFC
:10615000000083EA010180EA020281EA0303362D8E
:1061600088BF30BD11F0004F4FEA01314FF4801C61
:106170004CEA113102D0404261EB410113F0004F73
:106180004FEA03334CEA133302D0524263EB43032A
:1061900094EA050F00F0A780A4F10104D5F1200EC8
:1061A0000DDB02FA0EFC22FA05F2801841F1000123
:1061B00003FA0EF2801843FA05F359410EE0A5F1F7
:1061C00020050EF1200E012A03FA0EFC28BF4CF028
:1061D000020C43FA05F3C01851EBE37101F00045DE
:1061E00007D54FF0000EDCF1000C7EEB00006EEBEB
:1061F0000101B1F5801F1BD3B1F5001F0CD3490875
:106200005FEA30004FEA3C0C04F101044FEA4452CB
:1062100012F5800F80F09A80BCF1004F08BF5FEA52
:10622000500C50F1000041EB045141EA050130BD32
:106230005FEA4C0C404141EB010111F4801FA4F1D5
:106240000104E9D191F0000F04BF01460020B1FA2A
:1062500081F308BF2033A3F10B03B3F120020CDA62
:106260000C3208DD02F1140CC2F10C0201FA0CF040
:1062700021FA02F10CE002F11402D8BFC2F1200CA5
:1062800001FA02F120FA0CFCDCBF41EA0C0190405B
:10629000E41AA2BF01EB0451294330BD6FEA0404A4
:1062A0001F3C1CDA0C340EDC04F11404C4F120028F
:1062B00020FA04F001FA02F340EA030021FA04F3A1
:1062C00045EA030130BDC4F10C04C4F1200220FAF8
:1062D00002F001FA04F340EA0300294630BD21FA36
:1062E00004F0294630BD94F0000F83F4801306BFFC
:1062F00081F480110134013D4EE77FEA645C18BFF0
:106300007FEA655C29D094EA050F08BF90EA020F86
:1063100005D054EA000C04BF1946104630BD91EA7E
:10632000030F1EBF0021002030BD5FEA545C05D181
:106330004000494128BF41F0004130BD14F58004C0
:106340003CBF01F5801130BD01F0004545F0FE4134
:1063500041F470014FF0000030BD7FEA645C1ABF69
:10636000194610467FEA655C1CBF0B46024650EAA0
:10637000013406BF52EA033591EA030F41F40021CC
:1063800030BD00BF90F0000F04BF0021704730B552
:106390004FF4806404F132044FF000054FF0000127
:1063A00050E700BF90F0000F04BF0021704730B5E8
:1063B0004FF4806404F1320410F0004548BF4042BD
:1063C0004FF000013EE700BF42004FEAE2014FEA12
:1063D00031014FEA02701FBF12F07F4393F07F4FED
:1063E00081F06051704732F07F4208BF704793F0F0
:1063F0007F4F04BF41F40021704730B54FF4607403
:1064000001F0004521F000411CE700BF50EA010205
:1064100008BF704730B54FF000050AE050EA0102AE
:1064200008BF704730B511F0004502D5404261EB1E
:1064300041014FF4806404F132045FEA915C3FF45F
:10644000D8AE4FF003025FEADC0C18BF03325FEAFC
:10645000DC0C18BF033202EBDC02C2F1200300FAAD
:1064600003FC20FA02F001FA03FE40EA0E0021FAD2
:1064700002F11444BDE600BF4FEA4102B2F1E0432D
:1064800024BFB3F5001CDCF1FE5C0DD901F0004C1B
:106490004FEAC0024CEA5070B2F1004F40EB83006B
:1064A00008BF20F00100704711F0804F21D113F197
:1064B0003872BCBF01F00040704741F480114FEAD0
:1064C0005252C2F11802C2F1200C10FA0CF320FA59
:1064D00002F018BF40F001004FEAC1234FEAD32376
:1064E00003FA0CFC40EA0C0023FA02F34FEA4303E0
:1064F000CCE77FEA625307D150EA01331EBF4FF069
:10650000FE4040F44000704701F0004040F0FE4083
:1065100040F40000704700BF0C4B1A789AB930B4B1
:1065200001780B4D0B484FF080440A4602F00102FF
:10653000C1F34001C4F88015C4F878250122296808
:106540001A7030BC70470448704700BF30570020B5
:1065500000E100E00000AD0B0C00AD0B034B026846
:106560000021196002B11A60704700BFC4400020CA
:106570004FF080434FF46072C3F80423704700BFAC
:1065800010B54FF0804386B0D3F80443620705D5B9
:10659000D3F8082103F58473002A4ED1A30603D54E
:1065A0002A4B1A68002A3FD1600603D5284B1A6887
:1065B000002A2FD1210602D5264B1A680ABBE20514
:1065C00002D5254B1A6892B9A3050ED5234B1A683C
:1065D0005AB100221A601A68214B0592059A1B686D
:1065E000022006B0BDE81040184706B010BD0022DA
:1065F0001A601B4A1B68049301201368049A984789
:10660000E2E700201860164A1B6803931368039A98
:106610009847D4E700221A60124A1B6802930120AF
:106620001368029A9847C5E7002018600D4A1B6856
:1066300001931368019A9847B6E700221A600A4A44
:106640001B6800931368009A9847A7E7140100405D
:10665000180100401C0100402001004024010040BE
:10666000C4400020C0400020BC4000202DE9F04F75
:1066700095B003AF0BAE4B4C01929E46B846B44664
:10668000002304EB03120133D2F8185548F8045FD5
:10669000082BD2F81C254CF8042FF2D1DFF810A1FA
:1066A000DFF81091404D414BD4F8F085DFF8F4C08D
:1066B000DAF800B0D9F800A0D5F800900024012540
:1066C0001C601D600CEB041357F8042FC3F8182549
:1066D000013456F8042FC3F81C25082CF2D1344C91
:1066E000344B354D1E9A304EC4F800B0C3F800A0AC
:1066F0005FFA88F40023C6F8009085F82400CCF8EF
:10670000F045C5E90023019AEB84CCF8F015AB60A5
:10671000CCF8F4251E9A002A3FD02849284A0B605D
:1067200009680C910C99136011680491049942F85E
:10673000103C52F8103C03932323039ACCF8043303
:106740004FEA0E6E00274FF00109DFF8588018E07D
:10675000937E967CF4463A0108EB020402F18042F3
:10676000D4F8181502F5E04221F08071013741EAB2
:106770000C01082FC4F81815C2F81435C2F81065BA
:1067800008D009FA07F3034005EB0702E0D19C4665
:106790001E46E0E715B0BDE8F08F2323CCF80833A0
:1067A000CEE700BF0070004048760040FC7F00400C
:1067B0004076004044760040C84000200071004010
:1067C0001471004090B32DE9F041DFF8648084B08B
:1067D0000E4604460127002594FAA4F3B3FA83F386
:1067E00007FA03F2012ED9B24FEAC3030CBF03F537
:1067F0008C7303F58E7303F1804303F5E04324EAC1
:1068000002041A6801A862B11D601B6800938DF82C
:1068100004708DF808108DF80960D8F80030009ADF
:106820009847002CD8D104B0BDE8F081704700BF74
:10683000C84000201A4B93F822200AB1194870472B
:1068400010B4194A194C6FF00041C2F8081394F8BB
:106850000713EC2249090A41D2074FF0010183F8DE
:10686000221004D5124B9A68A2B98023236007280E
:106870000CD8EC230341DB0708D543010B4A0D4834
:10688000DBB282F807335DF8044B704709485DF8C6
:10689000044B70471A6842F080021A60E7E700BFB5
:1068A000C84000200500AD0B0070004000E100E092
:1068B000184B00200000AD0B2DE9F04FDFF8ECE0A5
:1068C0009EF822305A1E012A04D9042B02D03348E4
:1068D000BDE8F08F324B002203F108048EF823202C
:1068E00003F8012B9C42DA71FAD100294DD0002720
:1068F000BC46457ADFF8B89004464FF0010804E042
:10690000657A4CFA05F3DB0742D46678A3782278DF
:1069100094F803A094F805B036011B0203F4E06379
:1069200006F030061E4302F0030223794FEA0A3ACA
:1069300032430AF4805A42EA0A0A1B04A2794FEA57
:106940000B5603F4E0234AEA030306F4801612060A
:106950000137334309EB051A08FA05F6FFB275440F
:1069600002F080721A434CEA060C237AE679CAF8E0
:10697000182507EB870B8F4200EB4B045FFA8CFC6A
:10698000AE74AB76BCD38EF823C00648BDE8F08F5A
:106990008EF823C00448BDE8F08F00BF0B00AD0B9C
:1069A000DA4000200000AD0B0400AD0BC840002011
:1069B000007000402DE9F041DFF8948098F82250F3
:1069C0006E1E012E84B005D9042D03D01B4804B0DF
:1069D000BDE8F08198F823700825002601242042A4
:1069E00003D0274221D00136F6B2013D4FEA4404DC
:1069F000F5D11C460093131C18BF0123FFF736FE88
:106A0000BCB10F4B0F4A1D601B6803930823039909
:106A1000C2F804330C48A8F81060022388F82560F7
:106A200088F8223004B0BDE8F081084804B0BDE821
:106A3000F081044B0822C3F80823EBE70B00AD0BF1
:106A40000C710040007000400000AD0B0400AD0B65
:106A5000C8400020224B9A680AB12248704700F0D3
:106A60006042B2F1005F01D01F48704710B493F844
:106A7000254091FBF4F204FB121262B90AB2002A1B
:106A800009DD93F82220023A042A1ED8DFE802F03A
:106A9000121D0C0C070015485DF8044B7047144A92
:106AA000C2F82C06C2F830165A6882B19860D981B3
:106AB0001048F1E78C42EED10D4A58609981C2F836
:106AC0002C060C48C2F83046E6E70B48E4E7084AD3
:106AD00058609981C2F82C060648C2F83016DBE7E8
:106AE000C84000200C00AD0B0A00AD0B0600AD0B3A
:106AF000007000400000AD0B0500AD0B4D494B6828
:106B00006BB1F0B491F82230042B86B046D0062B3E
:106B100007D0022B34D0484806B0F0BC7047474835
:106B200070470B68002BF6D10C8A7CB10020444FD3
:106B3000444A064601253D601368002BFCD01660D0
:106B4000136804930130A042049BF4D13E4B1A68B1
:106B5000002A6AD000221A6018688B680590CC89D8
:106B6000059D8C810420C1E9013281F82200374A59
:106B70003748002B5BD0C2F82C36C2F83046CBE742
:106B8000324B0A680120C3F80005B2B118603048E2
:106B9000032281F8222006B0F0BC70472B4B0A6814
:106BA0000120C3F80005002A31D0186028480522CA
:106BB00081F8222006B0F0BC7047264A186013689E
:106BC000002BFCD0002313601268088A0192019AFE
:106BD00078B11B4E1B4A19461D46012434601368C8
:106BE000002BFCD015601368009301318142009B9B
:106BF000F4D1154A1368002BFCD0002313601168F0
:106C0000124A029102991248C2F8003584E706241C
:106C1000104A186081F822401368002BFCD0002332
:106C2000136013680393039B7EE70B4874E7C2F875
:106C3000003571E7C84000200500AD0B0200AD0B28
:106C40000470004008710040047100400070004072
:106C50000000AD0B007100400B00AD0B30B55D4B7B
:106C60001A6889B0002A41D15B4C5C4B1A6842B16A
:106C700000221A601A6894F822300192032B019ABC
:106C80006FD0574B1A6852B100221A6019680291EE
:106C9000A3F58A730299D3F83436A381A260514BCD
:106CA0001A68002A34D1002194F82600FFF78AFDE3
:106CB000012194F82700FFF785FD4B4B1A689AB124
:106CC00000251D6008A81A6804920221012384F897
:106CD000223000F80C1D2368049A9847434B102279
:106CE000C3F80823C3F8005509B030BD00223A4C60
:106CF0001A601A6894F822300092052B009A43D04B
:106D0000062B32D0032BB0D1394B01221A60ACE7ED
:106D100000251D6019686268A38903910692ADF889
:106D20001C308DF814502368039A05A8984794F8EE
:106D30002230032B21D0062BB5D1A368E289A28192
:106D4000C4E90135002B3CD128492268C1F800353F
:106D50000421052305A884F822108DF814309047EB
:106D6000A1E7234B01221A608BE705AD03238DF8C1
:106D7000143028462368984777E71C4A0223C2F854
:106D8000005584F822308EE708AD042305F80C3D49
:106D9000236828469847154BD3F8F835DB040CD404
:106DA000A368062284F82220002BDFD00F4AE18955
:106DB000C2F82C36C2F83016D8E70D4B01221A6003
:106DC000EEE794F82830002B3FF46DAF074B01221B
:106DD0001A6068E700710040C84000200C71004054
:106DE00014710040047100401071004000700040B8
:106DF000047000402DE9F04F0024DFF8A0A085B01A
:106E000006468B46904600F5A077A1464FF48035A4
:106E1000D6F804332B42E0B20FD057F8243063B1D8
:106E2000C6F84853C6F8085347F8249057F824305A
:106E300001935AF82B30019A98470134A0454FEA44
:106E40004505E5D1D6F80433DA070ED5D6F800317A
:106E50005BB10023C6F80031104BD6F80021029236
:106E600053F82B30029A04209847D6F804339B0736
:106E700011D5D6F8043173B10023C6F80431D6F821
:106E80000421064B0392039A53F82B30052005B0DA
:106E9000BDE8F04F184705B0BDE8F08F0041002075
:106EA000F0B543793A4C3B4F5D00EE1847F823208C
:106EB000A65D0EB13848F0BD90F904208E781F2AE7
:106EC0002CDD072E03D8EC273741FF0742D402F10F
:106ED000604707F5614797F800637709EC263E4164
:106EE000F6070DD52D4EB7683FBB002A08DB02F030
:106EF0001F0C012652092A4F06FA0CF647F82260A9
:106F000002680888C2F808052B44E2180879C97895
:106F1000917001255070E5542248F0BD224FD740B2
:106F2000FF07EDD5072E1ED9002AD0DA1F4F02F039
:106F30000F0637443E7E7709D0E7570902F01F0E4F
:106F400056F827C0012202FA0EF242EA0C0246F875
:106F50002720D5E702F16047760107F56147F6B2D1
:106F600087F80063B7E7EC273741FF07DCD57601E8
:106F7000002AF6B206DB02F1604707F5614787F8A1
:106F80000063A8E7094F02F00F0C67443E76D1E793
:106F9000F4400020004100200500AD0B184B0020FC
:106FA00000E100E00000AD0BFC06FFBDFCEC00E0E2
:106FB00090F904301F2B30B403DC1A4ADA40D207B0
:106FC00012D5194A9168F9B9002B0DDB5A09203204
:106FD0000121164C03F01F0301FA03F344F8223099
:106FE000BFF34F8FBFF36F8F0368114A114901241C
:106FF0005C60C3F84823C3F80823437903EB4303D9
:107000000022CA5430BC70475D09012452F8251093
:1070100003F01F0304FA03F321EA030342F82530C7
:10702000E2E700BFFC06FFBD184B002000E100E0D6
:1070300003000F00F440002043790449026803EB89
:1070400043030220C854012313607047F44000201A
:107050004379016810B403EB4303034C0122E2546B
:107060004A605DF8044B7047F440002002684FF41A
:1070700080338B40C2F84833D2F8040303420FD068
:107080005031890089B2C2F80833535843B1002304
:10709000535082B0535801930248019B02B070478D
:1070A000014870470700AD0B0000AD0BF0B5477904
:1070B000204D00687E00F4192C4483B094F801C080
:1070C0004FF480348C40C0F8484322F07F42C0F82F
:1070D0000843BCF1000F19D001F5A87C3E4440F8EC
:1070E0002C20D0F804E53544AEEB020C724588BF85
:1070F0000CF1FF1CAA7888BF0CF57F4C624516DCAA
:1071000053B9C0F844430C4803B0F0BD01F5A8756D
:1071100040F82520002BF4D05031890089B200239B
:10712000435043580193019BC0F80443E9E70348E7
:1071300003B0F0BDF44000200000AD0B0700AD0B24
:1071400003680022C3F8042182B0D3F8042101921D
:1071500002220198C3F8442309B1C3F8042302B002
:10716000704700BF032200210148FFF743BE00BF64
:1071700000B00040042201210148FFF73BBE00BFE0
:1071800000100140042202210148FFF733BE00BF76
:1071900000400240014B1B68184700BF0C41002013
:1071A000014B1B68184700BF14410020234B984235
:1071B0003FD0B0F1402F01D0214870472148F0B4B2
:1071C000EFF3108572B6204B9A68E2B91F4C204F3E
:1071D00001269E60D4F880603E401E60C4F8807036
:1071E000D4F884605E604FF0FF36C4F8846005B95F
:1071F00062B604794CB99D68016001210171D5B96D
:107200000F48F0BC70470122F1E7996871B16AB983
:10721000EFF3108172B60D4A18681060586850601C
:1072200000229A6001B962B6002CE9D00948F0BC8E
:1072300070470948C3E7002AEAD0E1E70030004080
:107240000000AD0B14410020184B002000E100E0CD
:10725000FC06FFBD0B00AD0B0C410020064B984215
:1072600008D0B0F1402F00D07047044B00221A60C4
:107270001A717047024BF9E70030004014410020BA
:107280000C4100202DE9F04F5E1EF6B2002483B0C1
:10729000074601368A46914600F5A075A0464FF490
:1072A000803B04F1500055F8243080000BFA04F1C3
:1072B000A20080B201346BB1D7F80433194209D06F
:1072C00045F80280AB580193D9F80010DAF8003085
:1072D000019A9847B442E4D103B0BDE8F08F00BFF3
:1072E000F0B50479564F4FEA440C0CEB0405AD00A1
:1072F00007EB050E83B09EF80830002B73D10668AB
:107300007A514A68CEF8042045797DB1013DEAB250
:1073100006F5A275184605EB820506F5A073186000
:1073200053F8042B0192AB42019AF8D1300B43B2CF
:107330001F2BCA7836DD072A03D8EC251541ED0747
:1073400054D403F1604505F5614595F800235509CE
:10735000EC222A41D20737D44B78D6F8042503F023
:10736000030322F003021343C6F804358A78D6F8E3
:1073700008050B7802F0030220F003010A43C6F867
:107380000825D6F810252F48644407EB840722F01F
:107390000F0203F00F03012113433972C6F81035B1
:1073A00003B0F0BD284DDD40ED07D5D5072A32D911
:1073B000002BC6DA254D00F00F0215442A7E550930
:1073C000EC222A41D207C7D5214DAA68BAB9002BB1
:1073D000C2DB00F01F005B0901221E4D02FA00F023
:1073E00045F82300B8E71C4803B0F0BD03F1604541
:1073F000520105F56145D2B285F80023A5E75B0986
:1074000000F01F0E012255F8230002FA0EF202438B
:1074100045F82320A0E7EC251541ED07C8D552011A
:10742000002BD2B206DB03F1604505F5614585F816
:1074300000238AE7054D00F00F0E75442A76BDE75C
:107440001C4100200000AD0BFC06FFBDFCEC00E081
:10745000184B002000E100E00500AD0B0368190B9C
:107460004AB21F2A70B403DC1C4CD440E40713D585
:107470001B4CA56825BB002A0EDB520920320123D4
:10748000184C01F01F0103FA01F144F82210BFF378
:107490004F8FBFF36F8F0368D3F800221249002487
:1074A0004FF0FF32C3F80042C3F80823027902EB21
:1074B000420201EB820201211961147270BC704713
:1074C000520901F01F0154F82250012606FA01F179
:1074D00025EA010144F82210DEE700BFFC06FFBDEB
:1074E000184B002000E100E01C4100200379054A10
:1074F000016803EB430302EB8303012002220860CF
:107500001A7270471C4100200379054A016803EB99
:10751000430302EB830301220A611A72704700BF22
:107520001C4100208B0040330268DBB2012001F5D2
:10753000A871D05052F82100704700BF70B40068A5
:1075400040F20115D0F800428D4024EA0504C0F84D
:10755000004283B0D0F800429DF8186023434FF4F6
:107560008034C0F800328C4046B9C0F8084301F5B9
:10757000A87140F8212003B070BC70478B0003F560
:10758000A0730025C550C3580193019BC0F8044364
:10759000EDE700BF024903480A1D0423FFF772BE4E
:1075A0001C410020008000400349044801F1100202
:1075B00004230C31FFF766BE1C4100200090004000
:1075C0000349044801F11C0204231831FFF75ABE95
:1075D0001C41002000A000400349044801F128029A
:1075E00006232431FFF74EBE1C41002000A00140BD
:1075F0000349044801F1340206233031FFF742BE4B
:107600001C41002000B001404B6B8A6A934210B4C9
:10761000044610D391F82C0038B90B6A5B0614D4D9
:10762000012060615DF8044B70470123E361002095
:107630005DF8044B7047486A5A1CC35CC4F81C359B
:1076400001204A635DF8044B70470123E36181F830
:107650002D305DF8044B7047F0B591F82F308BB0AA
:107660000D460446ABB9D0F824214E6B8F6A002A30
:1076700032D0C0F82431D0F8243104930123049A85
:10768000436181F82F30BE4216D0012318460BB05B
:10769000F0BD0023C0F82431D0F824210392039ACE
:1076A000C0F81C31D0F81C210292029AC0F80831AF
:1076B000D0F808310193019BD4F80431002BE4D0B9
:1076C0000023C4F80431D4F804210992099A85F8FA
:1076D0002D3018460BB0F0BDD0F81CC1BCF1000F26
:1076E00014D0C0F81C21D0F81C310593059BD0F8AC
:1076F0002431002B34D0C0F82421D0F82431069353
:107700000123069A436181F82F30BCE7D0F80821A5
:10771000002AB8D0C0F808C1D0F808210792079A0B
:10772000D0F8242152B1C0F824C1D0F824310893F4
:107730000123089A436181F82F30A4E7BE42A2D208
:107740004A6AD0F8181591556A6BA96A0132481E29
:1077500082426A630AD08A420FD00123236294E7EF
:10776000FFF752FF034600288DD18FE7286A4006B5
:107770000AD40223C4F80032EFE72A6A520684D5FD
:10778000022285F82D2081E78A42E6D1F8E700BF82
:1077900030B587B0002342F210720192C0F8043174
:1077A000D0F804210592059AC0F82431D0F824219C
:1077B0000492049AC0F81C31D0F81C210392039A59
:1077C000C0F808318A6AD0F808410294012A029C64
:1077D0004B6381F82F303AD00123C0F8003291F882
:1077E0002D200123022A036218BF03600B6843B1F6
:1077F00040F286238B608B68C0F80433204807B0C2
:1078000030BD019B002B0C46054606DC13E0019BB6
:10781000013B0193019B002B05DD21462846FFF724
:107820001BFF0028F3D194F82F3023B1D5F8C434CE
:10783000C5F8C43493B91248019B002BDFDC002249
:107840000523C5F800250F48C5F80035D7E70B6AB2
:107850005B06C1D40223C0F80032C0E70A4C0B49D2
:1078600008480B4A13F0010F18BF204613F0020F0F
:1078700018BF084613F0040F18BF1046DCE700BF1E
:107880000000AD0B0100AD0B0000AE0B0100AE0B14
:107890000200AE0B30B587B0002342F210720192A5
:1078A000C0F80431D0F804210592059AC0F82431BB
:1078B000D0F824210492049AC0F81C31D0F81C217D
:1078C0000392039AC0F80831D0F8082102920D46BD
:1078D00091F82D100446012291420298C4F800321A
:1078E00029466B6385F82F302046226218BFA260BC
:1078F000FFF78AFE2B6883B140F28623AB60AB684A
:107900001A48C4F8043307B030BD29462046FFF7B3
:10791000A3FE28B1019B013B0193019B002BF4DCEA
:1079200095F82F3023B1D4F8C434C4F8C4345BB90B
:107930000E48019B002BE6DC00220523C4F800253D
:107940000B48C4F80035DEE70A4D0B4908480B4ADE
:1079500013F0010F18BF284613F0020F18BF084696
:1079600013F0040F18BF1046E3E700BF0000AD0B93
:107970000100AD0B0000AE0B0100AE0B0200AE0B20
:10798000F0B591F82F300F6A87B00C46C3B90A7B67
:10799000951E012D2CD904F10C060FCE01AD0FC59B
:1079A00033682B6000238DF800300023790784F8BA
:1079B000303003D4D4E900316846984707B0F0BDB1
:1079C00001F10C0684460FCE01AD0FC5DCF8C434BE
:1079D00032682A609A07CCF8C43403D501238DF8A5
:1079E0000030E2E75D0716D502238DF80030DCE7B2
:1079F0004E6A8D69AE42CED1CE694D6981F82D3087
:107A0000C7F34017032A81F82C70C1E9096508D033
:107A1000FFF7BEFED2E7D80744BF03238DF800303E
:107A2000C3E7FFF737FFC9E708B506490648FFF780
:107A300013FE28B903490448BDE80840FFF7A0BF7A
:107A400008BD00BF584100200030004008B507497C
:107A50004FF04020FFF700FE30B904494FF04020BE
:107A6000BDE80840FFF78CBF08BD00BF944100206F
:107A70002DE9F04F0579DFF8B8814FEA0519A9EB38
:107A80000504A40008EB040683B096F82E701FB11D
:107A90005E4803B0BDE8F08F8B465D49824651F8E1
:107AA00025100068CDE90023FFF780FB5949884283
:107AB00003D0594803B0BDE8F08FDBF800209BF8F5
:107AC0000D10009B48F804301F2A86F8381088BF34
:107AD00002F01F04DBF80410019BB76098BF144646
:107AE00086F83070736086F82D7086F8317004F572
:107AF000E07488BF494EDAF8003098BF4FF0A046D6
:107B000040F20C671F2946F824708ABF01F01F0459
:107B10000C46424FDBF8086098BF4FF0A04704F5D1
:107B2000E07440F20C6E47F824E0C3F80825009A90
:107B3000C3F80C15C3F8246522B31B0B59B21F29D7
:107B40009BF80C2028DD072A03D8EC241441E40715
:107B500052D401F1604404F5614494F800235409BF
:107B6000EC222241D7070DD52D4A94684CBB002941
:107B700008DB03F01F03490901222A4C02FA03F330
:107B800044F82130A9EB050508EB8508012388F8A6
:107B90002E3003B0BDE8F08F234CCC40E407F1D584
:107BA000072A22D8EC241441E6071ED552010029E9
:107BB000D2B212DB01F1604404F5614484F8002381
:107BC000CBE7490903F01F0352F82160012404FAAE
:107BD00003F3334342F82130D4E7144C03F00F068B
:107BE00034442276227E5409BAE70029B1DA0F4CD8
:107BF00003F00F021444F5E701F16044520104F56B
:107C00006144D2B284F80023A7E700BF0500AD0BA2
:107C1000E43507000000AD0B0B00AD0B0003005076
:107C2000184B002000E100E0FC06FFBDFCEC00E08A
:107C300058410020F8B506793B4C3501AB1B07468F
:107C400054F82330006803B3020B53B21F2B18DD26
:107C50003649D1F808C0BCF1000F56D1002B14DB17
:107C60005B0920330121324802F01F0201FA02F2BF
:107C700040F82320BFF34F8FBFF36F8F3B793868F5
:107C800004E02C49D940C907E2D433462A4AC0F857
:107C90000823D0F80022C3EB031304EB830322F084
:107CA0000302C0F800220121002283F82E10C0F840
:107CB0000025FFF7D3FAAB1B04EB830393F83830AE
:107CC000E3B93A68D2F808351F2B86BF03F01F03CB
:107CD0001A494FF0A04103F5E073022041F8230058
:107CE000D2F80C351F2B86BF03F01F03134A4FF049
:107CF000A04203F5E073022142F82310AD1B04EB10
:107D00008504002384F82E30F8BD5B0902F01F02C1
:107D100051F823C04FF0010E0EFA02F22CEA0202D3
:107D200041F823203346B1E758410020184B00208A
:107D300000E100E0FC06FFBD8642040000030050A5
:107D40000379064A0168C3EB031302EB83030220A5
:107D5000052283F82E00C1F8002570475841002005
:107D600010B4036802790B49C3F808130A48D3F822
:107D70000012C2EB021200EB8202012421F0030187
:107D8000002082F82E40C3F800125DF8044BC3F8BF
:107D90000005704786420400584100202DE9F04755
:107DA0000679DFF8D4803401A31B08EB830393F832
:107DB0002D30012B4AD0022B42D0D0F800902B4B13
:107DC000C9F80833A51B08EB850595F83030002B62
:107DD00040D182F00403C3F3800385F830302A6277
:107DE0008E460F469246BEE80F0005F10C0CACE83B
:107DF0000F007A68DEF80030AA62FA686A62CCF88E
:107E000000303B787A78C9F88825C6EB0611012B3B
:107E100008EB810126D01BBBCAF34012A31B08EB61
:107E20008303484683F82C20FFF734FDA41BA400ED
:107E300058F8043013B9444484F83030BDE8F08772
:107E40000B78012BB9D00A48BDE8F0870B78012BDD
:107E5000B3D1F8E7AB68C9F804330648BDE8F0874A
:107E60000122DBE74846FFF793FCDFE78642040088
:107E70000500AD0B0B00AD0B58410020C37FFF2B5D
:107E80000DD0827F92B11F2B86BF03F01F030E49D6
:107E90004FF0A041012202FA03F3C1F80C35002390
:107EA00043770372D0E90031083018471F2B86BF93
:107EB00003F01F0304494FF0A041012202FA03F32B
:107EC000C1F80835EBE700BF00030050084BD3F8BA
:107ED000182102B97047002282B0C3F81821D3F8E4
:107EE00018310193019B034802B0FFF7C7BF00BFE1
:107EF00000300040D0410020084BD3F8182102B9CF
:107F00007047002282B0C3F81821D3F818310193CA
:107F1000019B034802B0FFF7B1BF00BF00F0024071
:107F20003C4200204FF04023D3F8182102B970479B
:107F3000002282B0C3F81821D3F818310193019BB5
:107F4000014802B0FFF79ABFF4410020084BD3F874
:107F5000182102B97047002282B0C3F81821D3F863
:107F600018310193019B034802B0FFF787BF00BFA0
:107F700000300240184200202DE9F04F0479B84F3C
:107F80004FEAC40808EB0405AD0007EB050985B00E
:107F900099F81C601EB1B34805B0BDE8F08F0091A0
:107FA000D0F800A0B049019251F82410064650467E
:107FB0009B46FFF7FBF8AD49009B884203D0AC48D5
:107FC00005B0BDE8F08F93F80CC0019A7A51C9F85A
:107FD00004B0BCF1010F197840F2F8801F2987BF67
:107FE00001F01F09A34A89464FF0A042012505FA76
:107FF00009F5C2F808551F298BBF01F01F050D4672
:108000009C4A4FF0A04205F5E0754FF0010942F897
:1080100025905D78FF2D00F0E7801F2D009593BF20
:10802000DDF800B0DFF84CE205F01F0B4FF0A04E7A
:108030000BF5E079012505FA0BF54FF0030BCEF8AF
:108040000C554EF829B09D78FF2D00F0D1801F2DE2
:1080500093F80EE088BFDFF81CB202958EBF05F0E2
:108060001F09A9464FF0A04B09F5E0794FEA8E0EA3
:108070004BF829E008EB040E07EB8E0E8EF820502B
:10808000DD788EF81F50FF2D29D01A790392A9466A
:10809000002A40F089801F2D87BF05F01F0B754A0D
:1080A000AB464FF0A0424FF0010E0EFA0BFEC2F8A5
:1080B00008E51F2D88BF05F01F0909F5E07E88BF80
:1080C000DFF8B0B1039A98BF4FF0A04B08EB04055E
:1080D0004FF0030907EB85054BF82E90AA775D7BDF
:1080E000009ACAF8081500359968CAF80C2518BF17
:1080F0000125029ACAF81025BCF1020FCAF824150E
:1081000000F08180BCF1030F7AD0BCF1010F5AD08E
:10811000CAF85455019A9979CAF8C015002A6BD04B
:1081200031684025090BCAF8045307264DB2CAF836
:1081300000651F2D5B7928DD072B03D8EC221A413F
:10814000D2076ED405F1604202F5614292F8003325
:108150005A09EC231341DB070DD5474B9A68002AD7
:1081600054D1002D07DB01F01F016D090123434AA3
:108170008B4042F82530444407EB8407002201235A
:108180007A773B7705B0BDE8F08F3D4AEA40D207E9
:10819000F1D5072B4ED9002DD4DA3A4A01F00F035E
:1081A0001A44137E5A09D4E71F2D87BF05F01F0B11
:1081B000304AAB464FF0A0424FF0010E0EFA0BFED4
:1081C000C2F80CE575E745F00205A1E71F2987BF56
:1081D00001F01F09274A89464FF0A042012505FA00
:1081E00009F5C2F80C5506E74FF0FF3200922AE776
:1081F0004FF0FF3202923DE70723CAF80035BAE795
:1082000045F0060584E745F0040581E76D0901F0B6
:108210001F0153F8256001228A40324343F825208C
:10822000A9E705F160425B0102F56142DBB282F829
:1082300000338BE7EC221A41D607ACD55B01002D49
:10824000DBB206DB05F1604202F5614282F80033E1
:108250007CE70C4A01F00F0632441376A1E700BF19
:10826000D04100200500AD0BEC3507000000AD0B40
:108270000B00AD0B00030050184B002000E100E0A4
:10828000FC06FFBDFCEC00E0F8B506793A4C03684B
:10829000F500AA1954F822208AB3190B4AB21F2AF2
:1082A00052DD364FD7F808C0BCF1000F56D1002A76
:1082B00012DB520920320123314F01F01F0103FA72
:1082C00001F147F82210BFF34F8FBFF36F8FAA1948
:1082D000036854F8222092B1AA1904EB82022949BA
:1082E000C3F80813527F52B101225A61D3F8042116
:1082F000002AFBD0AA1904EB820200215177AA19A7
:1083000004EB820292F82020FF2A0BD01F2A8ABF9A
:1083100002F01F024FF0A0411B4902F5E07202205B
:1083200041F82200194A00219342C3F80015354450
:1083300008BF0121184608BF516004EB8504FEF711
:108340008DFF00232377F8BD114FD740FF07C3D51A
:108350000A4FD7F808C0BCF1000FA8D0520901F0AD
:108360001F0157F822004FF0010C0CFA01F120EA2E
:10837000010147F82210AFE7D0410020184B002040
:1083800000E100E0520108000003005000F002404C
:10839000FC06FFBD2DE9F04F0479644F4FEAC40C91
:1083A0000CEB04039B008646F8180E46417F83B011
:1083B000002940F0918057F803909046B9F1000FE2
:1083C00004D012F0140F04BF012343770CEB040513
:1083D00007EB850596E80F0095F81FA005F10C0B3B
:1083E000BAF1FF0F8BE80F0010D0AA7F5346002A86
:1083F00076D0BAF11F0F86BF0AF01F034C494FF029
:10840000A041012202FA03F3C1F8083532686AB1CB
:1084100002F06043B3F1005F08D0644407EB8407C7
:10842000002344487B7703B0BDE8F08FB16821B1E9
:1084300001F06043B3F1005FEFD1DEF80030756802
:10844000F068C3F844250022C3F84855C3F8341532
:10845000C3F83805C3F81821D3F818210192019AFE
:1084600018F0010218BF0122C3F8502518F00202CB
:1084700018BF012218F0080FC3F8402504BF0122DD
:108480001A61B9F1000F0BD02B48402218F0040FED
:1084900014BFC3F80823C3F8042303B0BDE8F08F6A
:1084A000D3F81821002AFBD0BAF1FF0F2CD0644476
:1084B00007EB8407BB7F4BB3BAF11F0F84BF0AF0F1
:1084C0001F0A1B4A1C4898BF4FF0A042012303FA21
:1084D0000AF3C2F80C35A6E7184803B0BDE8F08FE0
:1084E000BAF11F0F4FF0010288BF0AF01F0302FA12
:1084F00003F388BF0E49326898BF4FF0A041C1F81E
:108500000C35002A84D191E70B488CE7BAF11F0F94
:1085100084BF0AF01F0A064A074898BF4FF0A042DE
:10852000012303FA0AF3C2F808357CE7D0410020A2
:10853000000300500A00AD0B0000AD0B0B00AD0BAB
:108540008B6982B083B10023C0F80831D0F80831BC
:108550000093009BCA684B6AD0F81805D0544B6A48
:1085600001334B6202B07047C0F80831D0F80831CF
:108570000193019BD0F8183502B0704770B55F4B7E
:10858000D3F80423920588B068D5D3F82421002AB3
:1085900064D000225A4CC3F82421D3F8241194F853
:1085A000292001914FF401710198C3F808130AB909
:1085B00001225A605149A569D1F88024E06802235C
:1085C0008DF810300023C1F880240590C4E90633EB
:1085D000CDE90652D4E9001304A89847474BD3F8D5
:1085E0001C21CAB1464C6169226A91425CD8434A57
:1085F0000023C2F81C31D2F81C210292029A62694F
:1086000052B16169A2688DF81030069163610592DC
:10861000D4E9001304A89847384BD3F84421DAB1C1
:108620000022374CC3F84421D3F8441194F8292090
:10863000009100990AB101221A60A36963B1002375
:10864000616AE268A3610123CDE905218DF810304C
:1086500004A8D4E90013984708B070BD274DD5F899
:1086600004335B07BAD5D5F80831002BB6D0244CBB
:1086700028462146FFF764FF636AA2699A42ADD19A
:10868000E369E068D4E900121BB3666AA361256957
:108690000590002301208DF810000696E560E36147
:1086A000636204A8904799E794F8282002F0FF013C
:1086B000002A9CD1C3F81C11D3F81C210392039A01
:1086C000A068216A226A415C01322262C3F81C154B
:1086D000A2E794F829300BB901236B60074B4FF4E4
:1086E0000175C3F80853656A059001230020A06155
:1086F00006958DF8103004A890476FE700200040E1
:10870000604200202DE9F047914D06792C2303FBB0
:10871000065382B093F82A301BB18E4802B0BDE8F0
:10872000F0870F4604468C4900689046FEF73EFDF0
:108730008A4B984203D08A4802B0BDE8F087D7F848
:1087400000C02168BCF1FF3F13D0BCF11F0F8BBFED
:108750000CF01F0EE646834A4FF0A0420EF5E0797A
:10876000012303FA0EF34FF0030EC2F8083542F866
:1087700029E0D7F804E0BEF1FF3F0ED0BEF11F0F95
:108780008BBF0EF01F037346DFF8D8914FF0A0495E
:1087900003F5E073002249F82320BB7E97F81BA065
:1087A00097F819907A69C1F8242543EA0A0349EA3F
:1087B0000303B9F1010FC1F86C35C1F814E5C1F834
:1087C0000CC561D02C2303FB06F33A69EA50E91883
:1087D000C1F804802268B8F1000F45D00023397E2B
:1087E000C2F81C31D2F81C710097009FC2F84431C6
:1087F000D2F844310193170B7BB2DFF878C1DDF872
:1088000004E0C2F804C31F2B6EDCDFF86CC12CFA45
:1088100003FC1CF0010F27D0072900F28880EC220E
:108820000A41D20740F183804A01002BD2B276DBA5
:1088300003F1604C0CF5614C8CF800239CF800238C
:108840005109EC220A41D10759D547498A68002AC3
:1088500057D1002B226807DB07F01F075B090121B6
:10886000424CB94044F823102C2303FB0655012445
:1088700000230421C2F8001585F82A40C5E9063313
:1088800085F829306B6149E7BB685A1C0ED01F2B55
:108890008BBF03F01F021A46DFF8C8C04FF0A04C90
:1088A00002F5E0724FF0000E4CF822E0FA68B2F1E7
:1088B000FF3F14D01F2A8BBF02F01F099146DFF83B
:1088C000A4E04FF0A04E09F5E07A4FF0010C0CFA4D
:1088D00009FC4FF00309CEF808C54EF82A90C1F8FC
:1088E0000825C1F810356DE7072903D8EC220A41A5
:1088F000D20723D403F1604C0CF5614C9EE722684B
:10890000B2E75B0907F01F0E4FF0010C51F823701E
:1089100022680CFA0EF43C4341F82340A4E71449C2
:1089200007F00F0C61440A760A7E510989E7002B93
:10893000E0DA0F4907F00F021144F5E703F1604C4C
:108940004A010CF5614CD2B28CF8002376E700BFE7
:10895000604200200500AD0B7D8502000000AD0BDC
:108960000B00AD0B00030050184B002000E100E0AD
:10897000FCEC00E080000200FC06FFBDF0B42E4ECF
:1089800005792C2303FB056384B05C69002C46D178
:1089900000685A611C6283F82840C0F81C41D0F876
:1089A0001C2102920122029F99608260C0F81C4142
:1089B000D0F81C210192019A1F6A1A6A5C68CF5D87
:1089C00001321A62C0F81C751CB11C4804B0F0BC1E
:1089D00070475F691A6A974203D818E093F8282015
:1089E0000ABBD0F81C21002AF8D0C0F81C41D0F8EE
:1089F0001C210392039AD3F820C01A6A11F80CC004
:108A000001321A62C0F81CC51A6A9742E9D8D0F838
:108A10001C31002BFBD00123C360084804E0084848
:108A200004B0F0BC704707482C2303FB0565002306
:108A30006B6104B0F0BC7047604200200000AD0BD9
:108A40000B00AD0B0800AD0B0379044A2C2101FB90
:108A500003235869003018BF01207047604200208E
:108A60002DE9F0434A4F05792C2303FB057385B0AC
:108A70005E6826B103684FF40174C3F808432C23E1
:108A800003FB05739C6964B1DC6904B3002E6FD0ED
:108A9000036840484FF40172C3F8042305B0BDE8F1
:108AA000F08393F829609A61D9605C62DC610368A5
:108AB000002E4ED02C2404FB0574626882B14FF462
:108AC00001723548C3F8042305B0BDE8F0832C24B7
:108AD00004FB0574DA61626819610368002AEED14B
:108AE000C3F84421D3F84421039205EB850905EB33
:108AF0004909039A804607EB8909D3F82421D3F862
:108B000008C1D3F8446118464946BCF1000F09D1A9
:108B1000B6B9002AF1D02C2303FB05750023AB6105
:108B20001E48D1E7002AF6D166B9FFF709FD636A4E
:108B3000A2699A4204F118011CD9D8F80030DCE788
:108B4000002AE8D12C2303FB057500231448AB61F0
:108B5000BAE7C3F82461D3F824210192019AC3F83B
:108B60000861D3F808210292012202991A60A1E754
:108B70000848A9E794F829300E60D8F800201BB106
:108B80000123136004489FE70123536002489BE7D9
:108B9000604200200B00AD0B0000AD0B0100AD0BDF
:108BA0000800AD0B0E4A03792C2101FB032393F837
:108BB000291099B9026882B0C2F82411D2F82401B0
:108BC00000900098C2F80811D2F80811019101989C
:108BD0000121116083F8291002B07047704700BF6F
:108BE0006042002030B5D0F8103185B004460D4603
:108BF00073B10023C0F81031D0F810214B7A0092E5
:108C0000009A5A0704D50B6813B1496801209847A8
:108C1000D4F8143173B10023C4F814316B7AD4F84A
:108C2000142101921B07019A04D52B6813B16968BE
:108C300002209847D4F81C3153B10023C4F81C31EA
:108C4000687AD4F81C31029310F01000029B13D004
:108C5000D4F80431CBB10023C4F80431D4F8042192
:108C60002B680392012203992A7273B16968032069
:108C700005B0BDE8304018472B68002BE8D0696884
:108C80009847D4F80431002BE5D105B030BD00BFC2
:108C900030B40C684A72022582B00D7274B112F0C1
:108CA000040F14BF92248224150748BF44F0200407
:108CB000D10648BF24F08004C0F800430021C0F86A
:108CC0000411D0F8044101941206019C57BF0122FF
:108CD000C018C250084602B030BC70472DE9F04FB2
:108CE00005797D4F4FEA450C0CEB0504A40007EB1A
:108CF000040E8BB09EF808601EB178480BB0BDE83A
:108D0000F08F06F0FF08DFF8ECA13A51CEF80430FE
:108D100042464E1E0DF118084FF00109019116F858
:108D2000014FFF2C00F09F8024F08003210648F8BB
:108D3000223000F19D801F2B87BF04F01F0ED34609
:108D40009E464FF0A04B09FA0EFECBF80CE51F2B08
:108D50008ABF04F01F034FF0A044544603F5E073AC
:108D6000032144F823100132042AD8D1066801995E
:108D7000DDE90640DDE90823C6F86045C6F864056C
:108D800001248879C6F868250A89C6F86C354B79BC
:108D9000C6F80045C6F80C35C6F80405C6F808251F
:108DA0004B89C6F810350023C6F80032C6F80033E8
:108DB000C6F81C31D6F81C210692069AC6F8103166
:108DC000D6F810210592059AC6F81431D6F8142168
:108DD00004920CEB05020498C6F80431D6F804019D
:108DE00057F822300390039AA3B3360B73B21F2BAC
:108DF0000A7914DC3A49D940C9072BD5072A64D827
:108E0000EC211141C80760D55201002BD2B247DBDB
:108E100003F1604101F5614181F8002305E0072A73
:108E200046D903F1604101F5614191F800235109F0
:108E3000EC220A41D4070DD52A4A916829BB002BA0
:108E400008DB06F01F065B090122274902FA06F635
:108E500041F82360654407EB8507244801233B72F2
:108E60000BB0BDE8F08F4FF0FF3348F822307AE7BF
:108E70001F2B87BF04F01F0ED3469E464FF0A04B1A
:108E800009FA0EFECBF808E561E75B0906F01F065C
:108E900052F823000121B140014342F82310D9E7E1
:108EA000134906F00F0001440A760A7E5109BFE714
:108EB000EC211141C907B4D503F16041520101F51C
:108EC0006141D2B281F80023AFE7002BA9DA08494B
:108ED00006F00F021144E8E78C4200200500AD0BBC
:108EE000FC06FFBD184B002000E100E00000AD0BC8
:108EF000FCEC00E000030050F0B4067907681D4A5E
:108F000071008D193C0B02EB850563B21F2B2D7A86
:108F100003DC194DDD40ED0716D5184DD5F808C016
:108F2000BCF1000F19D1002B0EDB5B0920330125AA
:108F3000134F04F01F0405FA04F447F82340BFF36D
:108F40004F8FBFF36F8F0768314402EB810200231C
:108F5000C7F800351372F0BC70475B0904F01F0CB2
:108F600055F82300012404FA0CF420EA040445F81F
:108F70002340E9E78C420020FC06FFBD184B00208F
:108F800000E100E0F0B50479264FD1F800E0B1F837
:108F900004C0006804EB440504EB440407EB8505BA
:108FA00007EB8404D1E9027102F001062D7AC0F8C2
:108FB00020E506EB5205C0F824C5C0F82875C0F8B6
:108FC0002C15C0F840E5C0F844C5C0F84875C0F895
:108FD0004C15D907DAB2C0F814550DD413F00203BA
:108FE0000CD1002EC0F8003221460CBF08230C2300
:108FF000BDE8F040FFF74CBE1023F2E746B108236E
:10900000C0F8003221460C23BDE8F040FFF740BE17
:109010000423C0F8003221460823BDE8F040FFF7E2
:1090200037BE00BF8C42002070B40579194E00682D
:109030006A00531906EB83031C7A1C7A1C7A022CF3
:1090400005D0D0F804312BB9012070BC7047D0F89E
:10905000044134B12A4406EB82020120107270BC34
:109060007047012444601C7A1C7A022C09D0D0F885
:109070000431002BE8D02A4406EB82030120187249
:10908000E3E7D0F80441002CF5D10029EBD10846E4
:10909000DBE700BF8C42002001490248FFF7A2BD78
:1090A0008C42002000C0014001490248FFF79ABDF0
:1090B000984200200010024001490248FFF792BD8B
:1090C000A44200200020024001490248FFF78ABD67
:1090D000B042002000D002401F282DE9F84386BF8F
:1090E00000F01F00264E4FF0A0461F2989464FF082
:1090F000010586BF01F01F09DFF884804FF0A0480A
:10910000854009F5E07300F5E070012740F20D623B
:1091100007FA09F7C6F80855C8F8087546F8202078
:1091200048F82320042032F035FE0924D8F8103501
:109130001F424FF004000CD1C6F80C5532F02AFE45
:10914000C6F80855042032F025FE631E13F0FF0414
:10915000ECD1C8F80C75042032F01CFEC8F8087574
:10916000042032F017FED8F81035064A064823FAD4
:1091700009F919F0010F18BF1046BDE8F88300BFC8
:10918000000300500000AD0B0100AD0B10B53E4ACE
:10919000136886B03BB300233C4C1360A17C13687A
:1091A0000193CB4303F0010304EB8302019852685F
:1091B000002A53D0607C002202288DF81420E2742B
:1091C0005DD004EB8101A3744B6804934A6006A848
:1091D000012300F80C3D23689847637C022B2ED1B5
:1091E000012363742BE02A4A116839B313601168B4
:1091F000284A0291254C0299C2F80035A27C8DF8CC
:10920000143004EB82018DF80C304868637428B187
:10921000049022684B6003A89047A27CD24302F0DE
:10922000010204EB820253682BB1049300212368EE
:10923000516003A898470023A37400E0134C237DDA
:1092400053B1002301228DF80C2004938DF81430C3
:109250002268237503A8904706B010BD627C022ADD
:10926000A8D0E37C002BB8D101228DF80C300493F8
:109270008DF814202368E27403A89847ADE7012312
:1092800004926374A3E700BF00D10140BC420020F8
:1092900004D1014000D00140434B1A7C002A7BD10D
:1092A000F0B4057A502D84B072D8467A502E6FD81B
:1092B000447807781960610007F001073B4C5A7445
:1092C00001F0020139434768C4F80475C4F8081571
:1092D000C4F81855C4F81C6585785A821F2D8CBFB8
:1092E00005F01F042C4604F5E0768CBF30494FF0A2
:1092F000A041C3E901220327012241F82670A240C0
:10930000C1F80C25C47829491F2C8BBF04F01F0617
:109310002646274F4FF0A04706F5E076002247F893
:109320002620244EC1F84055C1F8444532603568C6
:10933000214C0395039D226025680295029D44F807
:10934000042C54F8042C01920322019CC1F804233C
:10935000827A072A08D8EC211141C90704D55201A5
:109360001649D2B281F81D23144890F81D13EC223F
:1093700049090A41D20705D5114A916871B94FF0E0
:10938000005202600F4801221A7404B0F0BC70470A
:109390000D4804B0F0BC70470C487047116841F0AC
:1093A00000511160EEE700BFBC42002000D0014038
:1093B0000003005000D1014008D1014000E100E06D
:1093C000184B00200000AD0B0400AD0B0500AD0BE9
:1093D000064B074800214FF00042C3F80015017406
:1093E000C3F84025C3F84425704700BF00D00140B2
:1093F000BC4200200B4B5A7C32B15A7C0A480B4BC2
:10940000012A18BF1846704730B4094A0648022599
:1094100001245D744FF000511C7530BCC2F800117E
:10942000704700BFBC4200200000AD0B0B00AD0B2D
:1094300000E100E0314B1A7C002A34D05A7C032A28
:1094400038D000282DD00A042BD4F0B42C4CA268BC
:1094500082B052BB2B4A4FF00055C2F88050BFF388
:109460004F8FBFF36F8F5D7C9A7C022D1ABFD24362
:1094700002F00102002203EB82056E68E6B1224889
:10948000204991F81D23EC2352091341DB0705D530
:10949000A368002B2AD14FF000530B6002B0F0BC40
:1094A00070471A4870471A487047226822F00052E5
:1094B0002260D8E714487047043203EB4202154F8C
:1094C00091801A7C6860022AC7F86005C7F86415A5
:1094D00011D0114911480122C7F800250E60096812
:1094E00001910221019D19743A60C9E7236843F094
:1094F00000532360D2E70948C2E700BFBC42002006
:10950000184B002000E100E00B00AD0B0400AD0B98
:109510000500AD0B00D0014000D101400000AD0BB3
:109520000C4A537CDBB2012B0DD0537C23B1537C0E
:10953000022B01D008487047084909480023C1F8A8
:10954000003553747047074913740320507404485E
:109550000B607047BC4200200B00AD0B00D00140F7
:109560000000AD0B04D00140074B1A7852B9074AEE
:10957000116019B1064A0121C2F8041301221A70C0
:109580000448704704487047D8420020D442002065
:1095900000C000400000AD0B0C00AD0B064A0749AF
:1095A000126801230B6012B1054AC2F80833054B5B
:1095B00000221A70704700BFD442002004C000404F
:1095C00000C00040D842002000EB800000EB80008B
:1095D000704700BF30B5124D124B134A1B68002173
:1095E000296083B02968009101210098116013B1AE
:1095F0000E4803B030BD0A242B6804204BB932F06A
:10960000C9FB013CF8D10A480A4B01221A6003B099
:1096100030BD00232B602B680193019B0348F3E7C7
:1096200000C10040D442002000C000400000AD0B4B
:109630000100AD0B04C0004030B4094B094C0A4A8C
:109640000A4912680125002082B0256018601B6855
:109650000193019BD1F8080502B030BC104700BF50
:1096600000C1004004C00040D442002000C00040BF
:1096700030B42A4C94F85B3082B0002B44D104F112
:10968000230304F15301FF2203F8012F8B42FBD186
:10969000234984F854204FF0FF33002207288A80A2
:1096A000C4E90033C4F85520C4E90233C4E90433E3
:1096B000C4E90633236208D8EC230341DA0704D552
:1096C0004301184ADBB282F80633164991F80623A3
:1096D000EC2352091341DB0704D5134B9A68BAB93E
:1096E00040230B60114B124A1248002119601B687D
:1096F0000193019D4FF00043012184F85B10C2F8F3
:10970000043302B030BC70470B4802B030BC704725
:109710001A6842F040021A60E4E700BFDC42002011
:109720003143002000E100E0184B00207C61004044
:10973000006000400000AD0B0500AD0B034B93F83B
:109740005B00003018BF0120704700BFDC420020E2
:10975000F0B4474C231893F92450002D02DB454800
:10976000F0BC70478E78C6F34006002E42D02568C4
:10977000013577D000230133072B3ED854F823500E
:109780000135F8D127185DB244F8232087F824501A
:1097900016B9234483F84C008B785A071CD4DE0793
:1097A0004AD51F2887BF344B00F01F0202464FF0F6
:1097B000A04303EB8203D3F8002722F00202C3F890
:1097C00000272E4EC20800F0070CB75C012303FAF5
:1097D0000CF33B43B3548B780A78990710D4083DB7
:1097E0002C44274894F8543043EA821284F85420D9
:1097F000F0BC7047256A01352DD02248F0BC704777
:10980000AB0003F1804303F5C0430102D3F81045D8
:109810001B4824F44F3424F44074C3F81045120458
:10982000D3F8104501F47C5102F440320A4322433C
:10983000C3F81025F0BC70471F284B7887BF0E4E29
:1098400000F01F0202464FF0A04602F5E0729B00B6
:1098500046F82230B5E7082683F8246022623546B0
:10986000334696E70025226083F8245094E700BF32
:10987000DC4200200B00AD0B000300503143002000
:109880000000AD0B0200AD0B70B4364D2A1883B04A
:1098900092F92430072B1CDD2B4493F84C309B09A4
:1098A000032B3DD0012B14BF4FF440314FF4003156
:1098B0001F2845D900F01F002B4A02EB8000D0F88A
:1098C000003723F440330B43C0F8003703B070BCBB
:1098D0007047DAB2072AF9D8980000F1804000F505
:1098E000C0409200D0F8104502F1804202F5C24219
:1098F00044F001040026C0F8104516601268019279
:10990000019A0029E2D055F82320002ADED0012256
:10991000164902FA03F3C1F8043303B070BC704770
:109920001F2810D9104BD3F8103500F01F00C3408A
:1099300013F0010F0CBF4FF400314FF44031BBE77F
:109940004FF0A042B9E74FF0A0431A46D3F81035C4
:10995000C34013F0010F14BF4FF440314FF40031F6
:10996000ABE700BFDC420020000300500060004075
:10997000174B034493F92430072B0FDD1F288ABFB0
:10998000144B4FF0A04300F01F0003EB8000D0F811
:10999000003723F44033C0F800377047DAB2072AA3
:1099A00014D89A0002F1804202F5C04210B4D2F8F5
:1099B0001005094C012120F0010001FA03F3C2F85F
:1099C0001005C4F808335DF8044B7047704700BFBA
:1099D000DC4200200003005000600040F8B504465F
:1099E000FFF7C6FF2748031904F0070693F9242060
:1099F000D3B2072B00F155054FEAD40113D802F575
:109A0000A272214F4FF0000C47F822C06A5CF2406E
:109A1000D7070CD44FF0FF3240F823202044FF2317
:109A200080F82430F8BD6A5CF240D20725D51F2C9F
:109A30008BBF04F01F032346144A4FF0A04203F5E6
:109A4000E073022742F8237001226B5C02FA06F6EB
:109A500023EA06066E5403194FF0FF3293F82430C0
:109A6000072B40F8232003D90344FF2283F84C201E
:109A70002044FF2380F82430F8BD4FF0FF3240F837
:109A80002320F1E7DC42002000600040000300508A
:109A90002DE9F04F002289B0654B664C66481546AB
:109AA000CDE9022216460122196841B1D4F8041307
:109AB000114204D01E6019680091009915430433C7
:109AC00083424FEA4202EFD15C4B1A687AB100221E
:109AD0001A601B6801934FF0A042019BD2F8102539
:109AE000574B0292D3F81035039345F0004515F01B
:109AF000FF0F1AD0534F01260024A30003F1804327
:109B0000354203F5C0434FEA46060BD0D3F81005A3
:109B100057F82420D3F81015C0F30520C1F30141F4
:109B200002B190470134082CE7D1002D02DB09B0C7
:109B3000BDE8F08F4FF0FF3304ADCDE906330022CE
:109B4000404C3F4F6A6004924FF0010894F9542052
:109B5000D3B2013223F0C000E9D008AA4FEAD009FD
:109B600002EB090E03F0070C1EF8082C22FA0CF287
:109B7000D207DCD52218990992F9242054F8222022
:109B8000002A49D0032949D01F288BBF03F01F09A1
:109B900081463B464FF0A04303EB89031EF818ECC7
:109BA000D3F800672EFA0CFC1CF0010FC6F3014934
:109BB00024D1B9F1030FBAD1032924D14FF4003CC9
:109BC000D3F8001721F4403141EA0C01C3F8001723
:109BD0000AB1032190474FF0A0430299D3F8103502
:109BE000D7F81025994202D1039991429FD0049948
:109BF0000293059B0392CDE90613A7E7B9F1020F83
:109C000095D1032905D0002A91D009B0BDE8F04FC5
:109C100010474FF4403CD3E7032988D115F809A039
:109C200008FA0CFB4AEA0B0A05F809A0ACE700BFEA
:109C30000061004000600040206100407C61004005
:109C400000030050DC42002003464FF480720021E4
:109C5000502000F025BB00BF00B5422383B0CDE902
:109C60000030002201230221602000F041FB03B0FC
:109C70005DF804FB10B5AA22044690F8F7300421E1
:109C8000602000F061FB00B110BD94F8F62094F85C
:109C9000F53003EB02239BB243F48063552203218A
:109CA0006020BDE8104000F04FBB00BF10B584B08D
:109CB0000DF10E020123CDE9003204460023922269
:109CC0000221602000F014FB60B9BDF80E302401C1
:109CD00004F0300423F03003234355220321602095
:109CE00000F032FB04B010BD00B585B00DF10E02DE
:109CF0000123CDE90032022100239222602000F0EE
:109D0000F7FA18B9BDF80E00C0F3011005B05DF800
:109D100004FB00BFF8B506462DED048B0F46FFF798
:109D2000E3FF96F8DD2096F8DC3096F8D240DFEDC0
:109D3000BA7A96F8DB1096F8DF50DFEDB75A03EBEE
:109D4000022307EE103AB8EEC77A96F8DA30B4EE8E
:109D5000E77A04F00F02F1EE10FAC0F1030002F10D
:109D60000A0203EB012300EB141400EB0201C8BF4D
:109D7000DFEDAA7A4FF001001AB200FA04F096F86B
:109D8000DE303A80C8BF37EE677A07EE900A03EB01
:109D90000523F8EEE76A07EE903AF8EEE77A87EEE9
:109DA000266A01238B400124F4EEE57AF1EE10FAE5
:109DB000C8BF9FED9A7A87ED016AC8BF77EEC77A70
:109DC00007EE103AB8EEC77AC7EE876A9FED927A2F
:109DD000C7ED026A96F8D830DFED916A07EE903A47
:109DE000FAEEED7AC7ED037A96F8E72096F8E630BA
:109DF00003EB022307EE903AF8EEE77AF4EEC77A27
:109E0000F1EE10FAC4BF9FED857A77EEC77A9FED29
:109E1000857A67EE877AC7ED047A96F8C43007EE44
:109E2000103AB8EE477A96F8C030B4EEE67AF1EE22
:109E300010FA03F00F03C8BFDFED7B7A03F10803CC
:109E400004FA03F3C8BF37EE677A07EE903AF8EEEC
:109E5000E77AC7EE276AC7ED056A96F8E23008EEA2
:109E6000103A96F8E33008EE903AFFF73DFF96F887
:109E7000E12096F8E030B8EE488A03EB022307EEC3
:109E8000903AF0EE480AB0EE000AB8EEE78A0546CE
:109E900036F04CFBF8EE688AB0EE409AF0EE680AB5
:109EA000B0EE000A36F042FB88EE096AC5F1030302
:109EB000DBB29C4007F1180206F17F0306F1BF01F7
:109EC00007EE904AF8EEE76A13F8010F07EE100A62
:109ED000B8EE477A8B42C7EE007A77EE867A87EE45
:109EE000A67AA2EC017AEFD196F8D72096F8D63070
:109EF00003EB022307EE903AF8EEE77A87EE897AD1
:109F0000C7EE267AC7EDC67A96F8D940FFF7ECFE81
:109F1000C0F10300C5B204F00F0307EE903A07EE5C
:109F2000105AF8EEE77AF8EEC70AB0EE000A77EEBC
:109F3000A00A36F0FBFA96F8D11096F8D0309FEDD3
:109F4000385ADFED394A0122AA4007EE902A03EB86
:109F500001231BB2F8EEE75A07EE903A06F13F00F4
:109F6000B8EEE76A21098446721E07F58C7507F57D
:109F7000067410F8013F07EE103A12F8013F8B40CB
:109F8000B8EE477A07EE903AB4EEC57AF8EEE77A83
:109F9000F1EE10FA77EE867AC8BF37EE647AC7EE34
:109FA000A56A9445C7EE007AE5EC016AE4EC017A13
:109FB000DFD196F8D42096F8D3309FED177A9FED35
:109FC000186A03EB022307EE903AF8EEE77A96F868
:109FD000D530F4EEC77AF1EE10FAC4BF9FED0F7AD8
:109FE00077EEC77A07EE103AB8EE477AC7EEA56A61
:109FF000BDEC048B0020B4EEC67AF1EE10FAC8BFB7
:10A00000DFED097AC7EDC76AC8BF37EE677AC7EEDA
:10A01000007AC7EDC87AF8BD00FEFF460000804711
:10A020000000FE42000080350000804310B584B07F
:10A030000DF10E020123CDE90032044600239222E5
:10A040000221602000F054F958B9BDF80E3004F038
:10A050000F0423F00F03234355220321602000F057
:10A0600073F904B010BD00BFB0F880309FED217AC5
:10A0700091ED016A07EE903AF8EE677AB1F9003097
:10A08000F4EEC77AF1EE10FAC8BF9FED1B7A06EE28
:10A09000903AC8BF77EEC77AF8EEE66A91ED027A99
:10A0A000F1EE005A76EEE77A26EE060A65EEC76A0A
:10A0B00010B5A6EEA70A2DED028BB5EE400AF1EE23
:10A0C00010FAB1EEC08A0CD438EE466A37EE077A41
:10A0D000BDEC028B86EE070AF3EE097A30EE270A12
:10A0E00010BD0C4637F0C2F894ED016A94ED027A87
:10A0F000EAE700BF00FEFF46000080472DE9F0417F
:10A100002DED0C8B0D460646F0EE40AAF0EE608A6F
:10A110001746FFF7A9FFDFED5C7AB6F88230DFED76
:10A120005B6A9FED5ABADFED5ABADFED579A78EEC7
:10A13000A78A70EE277A68EEA88A67EEA77A68EE9B
:10A14000A88A0AEE103AB0EE686AA7EEE76A023E05
:10A1500005F11804B8EE4A7AC6EE2A7A05F58C782D
:10A16000B4EEE67AF1EE10FA78EEE78AC8BFDFEDDA
:10A17000487A95EDC7AAB3EE099AC8BF37EE677A59
:10A1800030EE499AD5EDC87AA7EE89AA37EE4AAAE9
:10A1900036F8023F94ED805AD4ED406A95ED037A8B
:10A1A000D5EDC65A95ED046A07EE903AF8EE677A57
:10A1B000E9EE056A0434F4EECB7AF1EE10FAC8BF8A
:10A1C00077EEEB7AB1EE477A77EEE67A54ED016AF4
:10A1D000E7EE0A7AB7EE008AC7EEAACAF0EE667A10
:10A1E000E7EE257AA9EE068A28EE278AF0EE6C7A49
:10A1F000E8EE887A28EE080A20EE080A20EE270A00
:10A20000B5EE400AF1EE10FAB1EEC0CA39D4B5EE9F
:10A2100040CAF1EE10FAB1EECCDA2DD495ED057A04
:10A22000F7EE007AE7EE697A27EE888AADEE078AC4
:10A230008CEE880A30EE280AB5EE400AF1EE10FAEC
:10A24000B1EEC0CA15D4B5EE40CAF1EE10FAB1EEC7
:10A25000CC8A09D4A04538EE698AA7EC018A97D147
:10A26000BDEC0C8BBDE8F081B0EE4C0A36F0FEFF81
:10A27000F0E736F0FBFFE6E7B0EE4C0A36F0F6FF0B
:10A28000CCE736F0F3FFC2E73393884300FEFF4686
:10A2900000008047014B1860704700BF3843002022
:10A2A0002DE9F04385B004AD440005F8011D0F4FC2
:10A2B0000126E4B238680096914698462A4621461F
:10A2C00033461DF0ADFB70B93B680090424618461E
:10A2D00021464B461DF084FB003018BF0120404250
:10A2E00005B0BDE8F0834FF0FF30F9E738430020B8
:10A2F00070B584B04400134E8DF80D20E4B20122F5
:10A300008DF80C108DF80E3000929DF820503068BA
:10A310008DF80F502146042303AA1DF081FB68B974
:10A320003368009021461846099A6B001DF058FBCF
:10A33000003018BF0120404204B070BD4FF0FF3024
:10A34000FAE700BF38430020F0B5104C85B025680F
:10A350008DF80810DEB21C0A410000230093B71AE2
:10A3600001F0FE0128460523A51A02AA8DF80A600D
:10A370008DF809708DF80B508DF80C401DF050FBD6
:10A38000003018BF0120404205B0F0BD3843002026
:10A390002DE9F04F2DED068B0446B0F8403034F82F
:10A3A000422FADF6045D0F4606921A0B1E32C3F320
:10A3B000031109EE102A03F00F02C3F303238446AE
:10A3C000019105934E3008A934F8023F03F00F05C0
:10A3D000C3F303160D60A042C3F303254FEA133302
:10A3E000C1E90165CB6001F11001EDD107AB049328
:10A3F0001FA953F8044F072CC4BF103C1C6099429E
:10A40000F7D1079320A90CF15E0630F8023F03F064
:10A410000F04C3F303150C60B042C3F303244FEAE7
:10A420001333C1E90154CB6001F11001EDD13FA913
:10A430001FAE56F8043F072BC4BF103B3360B14238
:10A44000F7D10123934007EE903A07F5925AD3468D
:10A450000CF17E0240ABF8EEE79AB8EE499ADFEDD8
:10A460005AAA9FED5AAA039202930AF1100A0BF11D
:10A47000140B049ADDF80C9052F8043F0492059AEC
:10A48000029D03FA02F8069B98445B461FACD34634
:10A49000F3EE0F8ABA464F46C146984637F8023F58
:10A4A000019AC3F3051307EE903A54F8043FF8EE0F
:10A4B000E77A93404B44F4EEE87A08EE103AF1EE76
:10A4C00010FAC8BF77EEEA7AB8EEC88AC5ED007A0E
:10A4D000A9EEA78AB0EE000AF0EE490A36F026F897
:10A4E00088EE000AA642DBED006AD8ED007A9AED0C
:10A4F000067A76EEA77AF6EE006A67EE677AA7EE3E
:10A50000A60ACAEE007AE5EC017AC7D1039B079A46
:10A5100040330393029B80330293049B934257463C
:10A52000DA46C346A5D19DED408A41ADF0EE487AAA
:10A530000DF550632C46B4EC017AB4EE677AF1EE77
:10A5400010FAC8BFF0EE477AA342F4D19FED207A0B
:10A55000F4EEC77AF1EE10FA31D54FF0000877EE3D
:10A56000A77A08F10108F4EEC77AF1EE10FA5FFA63
:10A5700088F8F4D407EE908AF8EE678A07F1480667
:10A58000B6EE009A01E0B5EC018AF0EE680AB0EE92
:10A59000000A35F0CBFFF0EE497AE0EE087AAC42E3
:10A5A000FCEEE77A17EE903A26F8023FEBD187F8F7
:10A5B0004A860DF6045DBDEC068BBDE8F08FDFED3D
:10A5C000058A4FF00008D9E700008042BD37863584
:10A5D000CDFEFF46000000002DE9F04FB0F87030CE
:10A5E000B0F86C60B0F86E5003F00F02C3F30313C1
:10A5F0002DED068B083307EE903A4FF0010808FA6C
:10A6000002F2ADF60C4DF8EE678A07EE902A01AF24
:10A6100046F307242B0AB8EEE79ABE7089463C70D1
:10A62000FD707B7000F1BE06F0EE089AB2EE00AA53
:10A63000A6F1400A07EB880B454600E0FC563AF8C5
:10A64000023FC3F3420307EE903AB8EEE78AB0EE5A
:10A65000000AB4EEE98AF1EE10FAC8BF38EE4A8A71
:10A66000F0EE680A8BED008A35F060FF07EE904A45
:10A67000F8EEE77AC5F34012E9EE087A05F0010337
:10A68000564503EB420387EE800A05F10105ABEC6A
:10A69000010AD3D108F1200240F201339A4206F1B7
:10A6A00040060AD008F11F08C8F3401308F001085B
:10A6B00008EB43039046FC56BAE79DED028A03AED1
:10A6C0000DF60843B0EEC87A3446F4EC017AF0EEA9
:10A6D000E77AF4EE477AF1EE10FAC8BFB0EE677A87
:10A6E000A342F2D1DFED207AB4EEE77AF1EE10FA70
:10A6F00036D5002737EE077A0137B4EEE77AF1EE68
:10A7000010FAFFB2F6D407EE907AF8EE678A09F6EF
:10A710004C45B6EE009A01E0B6EC018AF0EE680A0C
:10A72000B0EE000A35F002FF20EE080A0135B5EE62
:10A73000C00AF1EE10FA4CBF30EE490A30EE090AB9
:10A74000B442FDEEC07A17EE903A05F8013CE3D131
:10A7500089F84C7F0DF60C4DBDEC068BBDE8F08FF3
:10A76000DFED028A0027D2E79A997D4200000000BF
:10A770002DE9F04FB0F868202DED048B150B072D57
:10A780008A46C2F30321ADF60C4DC2F3031388BF12
:10A79000103D072901AFC8BF1039072BC8BF103BB8
:10A7A0007B70B0F87030B970C3F3032302F00F026E
:10A7B00007EE903A072A6DB2C8BF103AB8EE678A22
:10A7C0003D70FA700DF1080B4FF0010840F20139AD
:10A7D0000BF18006444600E0FD56F0EE480AB0EE6C
:10A7E000000A35F0A3FE07EE905AF8EEE77AC4F3BC
:10A7F000401287EE800A04F0010303EB42030134A8
:10A80000ABEC010A5E45E7D108F120024A450AD0C7
:10A8100008F11F08C8F3401308F0010808EB4303D0
:10A820009046FD56D4E79DED028A03AE0DF608432F
:10A83000B0EEC87A3446F4EC017AF0EEE77AF4EE42
:10A84000477AF1EE10FAC8BFB0EE677AA342F2D1B0
:10A85000DFED217AB4EEE77AF1EE10FA38D5002771
:10A8600037EE077A0137B4EEE77AF1EE10FAFFB26D
:10A87000F6D407EE907AF8EE678A0AF64D75B6EED2
:10A88000009A01E0B6EC018AF0EE680AB0EE000A28
:10A8900035F04CFE20EE080A0135B5EEC00AF1EEA7
:10A8A00010FA4CBF30EE490A30EE090AB442FDEE10
:10A8B000C07A17EE903A05F8013CE3D141F24D23FE
:10A8C0000AF803700DF60C4DBDEC048BBDE8F08F5B
:10A8D000DFED028A0027D0E79A997D420000000050
:10A8E0000B464FF450724FF4105100F0E9BF00BF17
:10A8F000F0B50446A3B00D460DF1060301224FF456
:10A900000041204600F0DCFFA0B9BDF806301A0770
:10A91000F2D530224FF40041204601F007F8431CE5
:10A9200008D02B464FF440724FF48061204600F06F
:10A93000C7FF08B123B0F0BD02AB40224FF4E06185
:10A94000204600F0BDFF0028F4D1204601AB0122D3
:10A9500048F20D0100F0B4FFBDF80640BDF8043028
:10A96000A5F8803604F00104A5F882460028E1D15C
:10A97000BDF8082047F6FF76B2424ED00DF1160121
:10A9800002AB0BAF31F8020FB04246D0B942F9D159
:10A99000BDF83010B14240D0BDF83210B1423CD0C9
:10A9A000BDF83410B14238D00DF1360112AF47F680
:10A9B000FF7631F8020FB0422FD0B942F9D10DF134
:10A9C00056011BAF47F6FF7031F8026F864224D064
:10A9D0008F42F9D1BDF8701081421ED0BDF87210BF
:10A9E00081421AD0BDF87410814216D00DF1860153
:10A9F0000DF1760047F6FF7630F8027FB7420CD0B3
:10AA00008142F9D105F2FE5101E033F8022F21F81D
:10AA1000022F8342F9D1B5F88246002347F6FF7032
:10AA200001E0182B0DD09901DAB2695A814203F185
:10AA30000103F6D102F00102A242F2D16FF0070049
:10AA400078E7204676E700BF2DE9F04FB0F8663092
:10AA5000DFED836A9FED836ADFED834A9FED835AC2
:10AA60009FED834A2DED048B1A0A1BB2BFB07F2ADB
:10AA700063F0FF0388BFA2F580724FEA4313029090
:10AA800088BF92B2A3F500534B805201029B0A800B
:10AA9000B3F864309A0A07EE102AB8EEC77AF3EEDC
:10AAA0000F7AB4EEE77AF1EE10FAC8BFDFED717AF3
:10AAB000029AC3F30903C8BF37EE677A07EE903AEC
:10AAC000F8EEE77A8846138CF4EEE67A1146B2F88F
:10AAD0006220A8F80C20F1EE10FAB1F86020C8BF8F
:10AAE000DFED656AA8F8142003F47043029AC8BF2A
:10AAF00077EEE67A06EE903A91F87830029927EEF2
:10AB0000067AB8EEE66A06EE903AB2F8703088ED52
:10AB1000017AF2EE005AB0EE657AC3F3013388F899
:10AB20002430A6EE247AB2F878304FF6D8721B0A99
:10AB3000F8EEE66A88ED047A07EE103AB1F87E3056
:10AB4000C8F84020B1F87E20B4EE006A67EE867A3D
:10AB5000F4EEC56AF1EE10FAC2F30312A8F844202D
:10AB6000C8ED027AC3F30133C8BFDFED417A9FED30
:10AB7000436A9FED3E5A084603EB8303B1F87E100B
:10AB8000C8BF76EEE76A5B0002FB03F2C1F3032164
:10AB900001FB032366EE866A4FF4C871A8F84420CF
:10ABA000A8F84810A8F84630DFED307AC8ED066AFC
:10ABB000B8EEC77AB0F87E30B0F87A10B0F87C20E2
:10ABC000DFED2F6AB4EEE77A03F00F0303F108001C
:10ABD000F1EE10FA4FF0010303FA00F3C8BFDFED06
:10ABE000247AC8B24FEA112106EE101AC8BF37EE18
:10ABF000677A07EE900AD0B2120AF8EEC65A04EE4F
:10AC0000900A06EE102A27EE267A06EE903AF8EE23
:10AC1000E77AF8EEE44AB8EEC66AF8EEE66AC8EDFE
:10AC20000B7AC8ED0C5AC8ED0D4A88ED0E6A88ED16
:10AC30000A7A08F12C0308F13C02F4EEC57AF1EE31
:10AC400010FAC8BF77EEC47A87EEA67AC8BFC3ED04
:10AC5000007AA3EC017A9A4214D0D3ED007AECE7A3
:10AC60000080FF4300008039000080380000FE4271
:10AC70000000804300008042000080440000003D4E
:10AC800000000039029BDE49B3F84020B3F874306D
:10AC9000C8F83C10C3F30905120B1B32B5F5007F51
:10ACA00000EE902AACB203DBA4F58064A4B225B216
:10ACB000029ADFEDD47AB2F87220C2F3090207EEED
:10ACC000102A9B0AB8EEC78A1F2BB4EEE78A84BF0E
:10ACD000403B9BB2F1EE10FAC8BFDFEDCB7A2344C4
:10ACE000F8EE600AB0EE000AC8BF38EE678A1CB200
:10ACF00035F01CFC029B029EB3F87230DFEDC36A94
:10AD00009B0A07EE903A029BF8EEE77AB3EE0F7AD1
:10AD1000F4EEC77A93F87630F1EE10FA88EE009AE6
:10AD200041F25827C8BF9FEDBA7A08EE103AB6F83C
:10AD30007030C8BF77EEC77AB8EEC88A9FEDB57A93
:10AD4000C3F30313B4EEC78A0833F1EE10FA00EE32
:10AD5000903AF7EE008AE7EEA68AC8BFDFEDAE7A3A
:10AD6000F8EE600AB0EE000AC8BF38EE678A35F028
:10AD7000DDFB88EE000AB6F876301B0A41F25A264F
:10AD800007EE903A029B88ED080AB8EEE78AB3F81E
:10AD90007030DFEDA07AC3F30322B4EEE78AF1EE60
:10ADA00010FA00EE902AC8BFDFED9B7AF8EE600A39
:10ADB000B0EE000AC8BF38EE678A35F0B7FB88EE00
:10ADC000000ADDF8089008F592524146484668EEC0
:10ADD000898A88ED070A82ED049AC2ED058A28F86F
:10ADE000075028F80640FFF7D3FAB9F82030484654
:10ADF00003F00F0730F8222F0392C3F3031CC3F3B1
:10AE00000323019306AA09F12E0130F8023F03F053
:10AE10000F04C3F3031514608142C3F303244FEA04
:10AE20001333C2E90154D36002F11002EDD10DF1E8
:10AE300014091DAACE465EF8043F072BC4BF103B81
:10AE4000CEF800307245F6D1029B1EAA03F13E05F2
:10AE500031F8023F03F00F00C3F3031410608D427A
:10AE6000C3F303204FEA1333C2E90140D36002F178
:10AE70001002EDD13DAA1DAE56F8043F072BC4BF0A
:10AE8000103B3360B242F7D1029BCDF814807E3381
:10AE900008F24C6ADDF80C8004939B4659F8045F75
:10AEA000019B9D404544ADB250461DA95C4634F817
:10AEB000023F9B0A1F2B1AB284BF403B1AB251F8C3
:10AEC000043F028003FA0CF3BA402B4413448E4231
:10AED00020F8023BEBD1F1450BF1400B0AF1400A9F
:10AEE000DCD1DDF81480029C41462046FFF774FB5C
:10AEF00020464146FFF73CFCB4F86A30DFED476A74
:10AF0000A28A03F03F0107EE901AF8EEE77AB3EE5B
:10AF10000F7AF4EEC77AF1EE10FAC8BF9FED3C7AD3
:10AF2000C3F38411C8BF77EEC77A07EE101AB8EEE4
:10AF3000C77AB2EE0E6AB4EEC67AF1EE10FA67EE98
:10AF4000A66AC8BFDFED367A4FEAD323C8BF37EE13
:10AF5000677A07EE903AF8EEE77AB2EE0E6AF4EE10
:10AF6000C67AF1EE10FAC4BF9FED2D6A77EEC67A6D
:10AF70006FEA1212F6EE005AB4EE006A02F0800296
:10AF800008F5925127EE257A67EE867A88F8252013
:10AF900008F59353C1ED076A41F2682441F272202B
:10AFA00041F26A2183ED007AC3ED017A41F2742205
:10AFB0004FF6FF7328F8043028F8003028F80130E5
:10AFC00041F26C2041F2762128F8023041F26E22E3
:10AFD00028F8003028F8013041F2782041F2702141
:10AFE00028F8023041F27A2228F8003028F801309F
:10AFF000002128F80230049C0A460B4620E000BFDE
:10B0000017B751B90080FF43000080440000003CA6
:10B01000000080420000FE42000080430000803DAE
:10B020000000004228F81630AAB201339BB2B3F5F3
:10B03000407F1BD0052A00F08A80052900F08E8011
:10B0400034F8020F02F63416551C0028EAD010F02E
:10B05000010F01F63810E8D008EB400001314380C1
:10B0600001339BB2B3F5407F89B2E3D1052A6ED09C
:10B07000052973D05318042B77DCA2B308F5935C31
:10B080000CF10C0C4FF0010E7245704622DD3CF8BD
:10B09000047C3CF8023CFB1A03F12104022C4FD93A
:10B0A0005C1C022C4CD91F3B022B49D964460EE094
:10B0B00034F8023BFB1A03F12105022D03F10106CE
:10B0C000A3F11F033CD9022E3AD9022B38D9013003
:10B0D0008242EDD10EF1010E0EF1FF339BB29A4286
:10B0E0000CF1020CD0D8002949D008F5935316333F
:10B0F0000124A14225463BDD33F8047C33F8020CE1
:10B10000381A00F12106022E1AD9461C022E17D930
:10B110001F38022814D91E460135A94228D036F816
:10B12000020B381A00F1210EBEF1020F00F1010CE2
:10B13000A0F11F0004D9BCF1020F01D90228EBD8FD
:10B140006FF005003FB0BDEC048BBDE8F08F6FF0F1
:10B1500002003FB0BDEC048BBDE8F08F6FF0030040
:10B160003FB0BDEC048BBDE8F08F6FF00400F0E75A
:10B170000134601E80B2814203F10203B9D808F5A0
:10B180009355123505EB4101002441F2682CA3B21E
:10B190009A4217D90CEB440646442846814213D004
:10B1A00030F8027B3388DB1B03F1210EBEF1020F66
:10B1B00003F10107A3F11F03C2D9022FC0D9022B4B
:10B1C000ECD8BDE70020C4E70134E0E730B583B038
:10B1D0000C460DF10603012248F20D01054600F070
:10B1E0006FFB60B9BDF80620A40204F4406422F4A9
:10B1F00040622846224348F20D0100F097FB03B05D
:10B2000030BD00BF30B583B00C460DF106030122FE
:10B2100048F20D01054600F053FB60B9BDF8062069
:10B22000E40104F4607422F460722846224348F278
:10B230000D0100F07BFB03B030BD00BF38B5B0F8A6
:10B240005436DFED227A91F824202DED028B08EEA2
:10B25000103AB8EE488A00EE902AB4EEE78AF1EE92
:10B2600010FAC8BFDFED1A7AB0F88036F8EE600A3F
:10B27000B0EE000AC8BF38EE678A0C46C3F38125DA
:10B2800035F054F907EE905AF0EE408AF8EEE70AEE
:10B29000B0EE000A35F04AF988EE800AB4F90230BF
:10B2A00007EE903AB4F90030DFED0A6AF8EEE77A7B
:10B2B00007EE103AD8EE007ABDEC028BB8EEC77AF2
:10B2C00087EE870A30EE260A38BD00BF00FEFF4633
:10B2D000000080473333534038B505460C46FFF72E
:10B2E000ADFFB5F84036DFED237ADFED226A94ED4D
:10B2F000046AD4ED014A9FED205AD4ED025A07EEBC
:10B30000103AB8EE477AB5F80036B4EEE77AF1EEC7
:10B3100010FAC4BFDFED197A37EE677A07EE903A7C
:10B32000F8EE677AA389F4EEE67AF1EE10FAC4BF7C
:10B33000DFED126A77EEE67ADFED116AE6EE077A64
:10B3400030EE660A87EE276AF7EE006AE4EE806A5E
:10B3500007EE903A26EE056AB8EEE77AC6EE267A50
:10B36000F3EE096A77EEC77A87EEA50A30EE260A71
:10B3700038BD00BF00FEFF46000080480000804747
:10B38000333353402DE9F0472DED108B86B00C463A
:10B3900007461646B0EE609AB0F88296DFED7ECA98
:10B3A0009FED7ECADFED7E9ADFED7EEAF0EE40BAD9
:10B3B000FFF744FF21463846F0EE40AAFFF78CFF26
:10B3C000DFED777A94F84C3F39EE279A70EE277AC2
:10B3D00029EE099A67EEA77A29EE099A00EE903ACB
:10B3E000B0EE497AA7EEE77AB0EE40AAC7EE2B7A24
:10B3F000F8EE600AB0EE000A39EE679A35F096F87A
:10B4000041F24D23B0EE40DAE35C00EE903AB0EE4C
:10B41000000AF8EE600A35F089F894F84A3600EE32
:10B42000903AF0EE40DAF8EE600AB0EE000A35F03D
:10B430007DF8B4F94420B4F94630B7F81416D4EDC9
:10B440000D3A94ED0B4ADFED584ADFED535A94ED77
:10B450000C5AB7F880869B1A07EE102A07EE903A2E
:10B46000F8EEC76AF8EEE77AB7EE007AF0EE47FA40
:10B4700006EE101AE3EEA7FAB4F9143094F825207A
:10B48000F0EE477AE4EE247A4FEA681808F0800A72
:10B49000B8EE466A87EE27FA4FFA88F8B4EEE56A06
:10B4A000F1EE10FAC8BFDFED3F7A9FED404A05EE9E
:10B4B000903AB7F81036C8BF36EE676A07EE903A92
:10B4C000F0EE474AE5EE264AB7F85036F8EE677ACE
:10B4D0009FED315AF8EEE55AF4EEC57AF1EE10FA26
:10B4E00085EE86BA07EE103AC8BF9FED2E6AB8EE19
:10B4F000477AC8BF77EEC67A9FED276AB4EEC67A60
:10B50000F1EE10FAC8BF9FED276A41F25823C8BF79
:10B5100037EE467AB3EE096A3AEE46AAF7EE005ADB
:10B5200094ED086AE35EB0EE655AA6EE0A5A5245FB
:10B5300006EE103AF0EE646A6FEEA4FA7AEEC4AA50
:10B54000D4ED074AB8EEC66AE4EEAA5A41F25A238D
:10B5500025EE466A6BEE277AE35EE6EE257A2BEE61
:10B56000077ACDED047A07EE903A18BF04F59253AE
:10B57000F8EEE77A1CBF93ED076A77EE867A06ABA2
:10B5800067EE857A03EB8909A5EEE77A0023B0EE32
:10B5900040EA8DED057A12E000FEFF46BD378635A4
:10B5A00033938843000080470000204233335340E8
:10B5B000B5F5407F06F104062B4600F00481B8F192
:10B5C000000FC3F340100246B7F88216BCBF03F069
:10B5D00001024240914203F10105E9D16A00B91824
:10B5E000224431F8021C07EE101A6119B8EE477AAE
:10B5F00091F94BCC91F94C1F05EE90CA07EE901AC9
:10B60000F8EEE55AF8EEE77AC5EE8D4AB2F94A1639
:10B6100087EEAD5AF7EE007AF0EE675A06EE101A92
:10B62000EAEE245A94F82510B8EEC66AEAEE857A56
:10B63000B4EEEC7A25EE866AF1EE10FAC8BF37EE6A
:10B640006E7A67EEC67A5145E7EE0B7A2AD0400053
:10B6500004F5935C411E07EE101ADCED015A9CEDD7
:10B66000006A691C15F1020C48BF05F1050C891030
:10B67000002BA1EBAC0101EBA501B8BF0333A1EB9B
:10B68000A303C0F10100B8EEC77A13FB00F35BB26D
:10B69000E5EE877A07EE103AB8EEC77AB1EE466A61
:10B6A000E6EE077AB2F8483059ED025AD4ED064A70
:10B6B00094ED0A5A07EE103AE4EEE57A2EEE0C6AA3
:10B6C000B8EEC77AB7EE008AC6EE075A87EEAB6AC5
:10B6D000AAEE058AF0EE467A28EE258A28EE080AB8
:10B6E000E9EE087A20EE080A20EE270AB5EE400AB5
:10B6F000F1EE10FAF1EEC08A00F18C80F5EE408A8E
:10B70000F1EE10FAF1EEE85A00F1968094ED0C7A21
:10B71000F7EE007AE7EE697A67EE887AE5EE877AE7
:10B7200086EE270A30EE090AB5EE400AF1EE10FA6D
:10B73000F1EEC07A00F1AE80F5EE407AF1EE10FA4B
:10B74000F1EEE78A00F19980B4F9423007EE103A41
:10B7500078EEE97AB8EEC77AB4EEE77AF1EE10FA4D
:10B7600036DDB4F9403007EE103A28EE0F8AB8EE15
:10B77000C77A002304EB830377EEC77AD3ED0B5A25
:10B78000B7EE007AA5EEA77A27EE088A86EE080AB9
:10B7900030EE090AB5EE400AF1EE10FAF1EEC08A79
:10B7A00064D4F5EE408AF1EE10FAB1EEE88A54D492
:10B7B000B5F5407F06F104062B4638EE698A06EDA2
:10B7C000018A7FF4FCAE06B0BDEC108BBDE8F087BB
:10B7D000B4F9443005EE903AF8EEE55AF4EEE75A43
:10B7E000F1EE10FA10DCB4F9463007EE103AB8EE7C
:10B7F000C77AB4EEE77AF1EE10FA07DD28EE268A72
:10B80000B0EE657A0223B5E70123B3E728EE2F8A6D
:10B810000323AFE78DED026ACDED016A35F026FD19
:10B82000F5EE408AF1EE10FA9DED026ADDED016A57
:10B83000F1EEE85A7FF56AAFB0EE680A8DED036A63
:10B84000CDED025ACDED016A35F010FD9DED036A94
:10B85000DDED025ADDED016A58E7B0EE680ACDED84
:10B86000016A35F003FDDDED016AA1E7CDED016A66
:10B8700035F0FCFCDDED016A93E7B0EE670A8DED73
:10B88000026ACDED016A35F0F1FC9DED026ADDED55
:10B89000016A59E78DED036ACDED027ACDED016ABB
:10B8A00035F0E4FC9DED036ADDED027ADDED016A21
:10B8B00042E700BF014B1860704700BF3C430020C7
:10B8C0002DE9F04184B004AD49BA25F8021D4600C7
:10B8D000154FF6B24FF0010C3868CDF800C0904615
:10B8E0001C462A46314602231CF09AF8C0B93B6830
:10B8F00000904FEA4805184631462B4622461CF078
:10B900006FF868B9B8F1000F07D0234661191A889B
:10B9100052BA23F8022B8B42F9D104B0BDE8F08172
:10B920004FF0FF30F9E700BF3C430020F0B585B091
:10B9300004AB49BA23F8021D44000F4E0225E4B2BD
:10B9400057BA306800951A4621462B46ADF80C7060
:10B950001CF066F868B9336800902146184603AABF
:10B960002B461CF05DF8003018BF0120404205B0A6
:10B97000F0BD4FF0FF30FAE73C4300202DE9F047DF
:10B9800082462DED048B8146428E3AF8360FB9F887
:10B990003430DFED608AADF54A7D470902F01F05BE
:10B9A00000F01F00520900F11404143702F11400D2
:10B9B0005A0903F01F031435ADF80C701432143318
:10B9C00004AFADF80E40ADF806500E46ADF80400D9
:10B9D000ADF80820ADF80A300DF104083D460AAC78
:10B9E00001E038F8020F3AF8023F08EE103AFAF791
:10B9F000C9FCFAF741FDB0EE000A00EE900A34F0FF
:10BA000095FDB8EEC88A88EE000AC0EE287AE5EC0B
:10BA1000017AA542E5D106F5CC6393ED006AD6ED37
:10BA2000067ADFED3D5A26EE676A09F23E2120468E
:10BA300009F2BE39F7EC016AA1F14003024633F87E
:10BA4000025F07EE905AF8EEE77AB0EE467AA7EE7C
:10BA5000A67A8B42C5EE877AE2EC017AEFD103F148
:10BA60004001894500F18000E4D194ED008A0BADDE
:10BA700004F54073F0EE487A2C46B4EC017AB4EE4B
:10BA8000677AF1EE10FAC8BFF0EE477AA342F4D11C
:10BA90009FED227AF4EEC77AF1EE10FA34D54FF02A
:10BAA000000877EEA77A08F10108F4EEC77AF1EE04
:10BAB00010FA5FFA88F8F4D44046FAF763FCFAF714
:10BAC000DBFC09EE100A06F15A07F6EE008A01E0E7
:10BAD000B5EC018AF0EE490AB0EE000A34F026FD1A
