:020000040800F2
:1000000020110020151800086D0200086F0200087A
:1000100073020008770200087B020008000000005D
:100020000000000000000000000000007F02000847
:100030008102000800000000830200088502000819
:100040002F1800082F1800082F1800082F18000874
:100050002F1800082F1800082F1800082F18000864
:100060002F1800082F1800082F1800082F18000854
:100070002F1800082F1800082F1800082F18000844
:100080002F1800082F1800082F1800082F18000834
:100090002F1800082F1800082F1800082F18000824
:1000A0002F1800082F1800082F1800082F18000814
:1000B0002F1800082F1800082F1800082F18000804
:1000C0002F1800082F1800082F1800082F180008F4
:1000D0002F180008AD0600082F1800082F18000878
:1000E0002F1800082F1800082F1800082F180008D4
:1000F0002F1800082F1800082F1800082F180008C4
:100100002F1800082F1800082F1800082F180008B3
:100110002F1800082F1800082F1800082F180008A3
:100120002F1800082F1800082F1800082F18000893
:1001300000F002F800F05EF80AA090E8000C82449B
:100140008344AAF10107DA4501D100F053F8AFF278
:10015000090EBAE80F0013F0010F18BFFB1A43F0A5
:1001600001031847F82B0000182C000010F8013B81
:100170000A4413F0030408BF10F8014B1D1108BF17
:1001800010F8015B641E05D010F8016B641E01F8C5
:10019000016BF9D1002D15D010F8014B03F00C03C1
:1001A0000C2BA1EB04040ABF10F8013BA4EB831451
:1001B000A4EB032405F1010314F8016B5B1E01F8A5
:1001C000016BF9D5914238BF10F8013BD1D370478C
:1001D0000023002400250026103A28BF78C1FBD850
:1001E000520728BF30C148BF0B6070471FB51FBD05
:1001F00010B510BD02F060F91146FFF7F7FF00F0EF
:1002000009F802F092F903B4FFF7F2FF03BC00F023
:1002100095F9000000F028F94FF4A06001F01AFBF6
:100220004FF4E13000F098F94FF4165000F0E4F983
:1002300001F068FA01F0FCF812E00A4800780A4977
:10024000097888420CD007480078074908700548AB
:10025000007800F0D0FA6320024908700249087063
:10026000EBE700001B0000201C000020704700BFCF
:10027000FEE700BFFEE700BFFEE700BFFEE77047F6
:1002800070477047704700000CB500200190009047
:100290006C48006840F480306A49086000BF6948D3
:1002A000006800F4003000900198401C0190009814
:1002B00018B90198B0F5A06FF1D16248006800F458
:1002C000003010B10120009001E000200090009863
:1002D000012843D15C48006840F010005A4908608A
:1002E0000846006820F0030008600846006840F0F7
:1002F0000200086053484068524948600846406818
:1003000048600846406840F480604860084640689D
:1003100020F47C1048600846406840F4E8104860CB
:100320000846006840F08070086000BF45480068DB
:1003300000F000700028F9D04248406820F0030027
:10034000404948600846406840F00200486000BFED
:100350003C48406800F00C000828F9D10CBD10B5ED
:10036000FFF792FF10BD10B53648006840F001005D
:1003700034490860084640683449084031494860BB
:1003800008460068324908402E490860084600685F
:1003900020F4802008600846406820F4FE00486091
:1003A0004FF41F008860FFF7DAFF4FF00060294923
:1003B000086010BD10B5002100200022214B5B68B1
:1003C00003F00C0121B1042906D0082928D107E047
:1003D000214B224C236027E01F4B204C236023E05D
:1003E000184B5B6803F47010164B5B6803F48032A3
:1003F000022303EB904022B9194B4343174C23606F
:100400000DE0104B5B6803F4003323B1144B4343FE
:10041000124C236003E0104B4343104C236003E075
:100420000D4B0E4C236000BF00BF064B5B68C3F34F
:1004300003130C4CE15C094B1B68CB40074C236059
:1004400010BD000000100240002002400000FFF834
:10045000FFFFF6FE08ED00E000127A000000002029
:1004600000093D000400002010B56FF0040001F009
:1004700040FA2E4800682E49B0FBF1F02D49087073
:100480000846007800EB4001C1EBC0104FF6FF7149
:1004900001EAC0002849088010BD0146254A1278AB
:1004A0004A434FF0E0235A6100229A611A461269CA
:1004B00042F001021A6100BF4FF0E022106900F023
:1004C00001021AB100F48032002AF5D04FF0E02288
:1004D000126922F001024FF0E0231A6100229A61B2
:1004E00070470146144A12884A434FF0E0235A618C
:1004F00000229A611A46126942F001021A6100BF95
:100500004FF0E022106900F001021AB100F48032CD
:10051000002AF5D04FF0E022126922F001024FF0DC
:10052000E0231A6100229A61704700000000002059
:1005300000127A00140000201600002000BF70474F
:1005400000BFFE4A128802F04002002AF9D0C2B26F
:10055000FA4B1B1D1A80704710B586B00446012166
:1005600044F2040001F000FD4FF40070ADF81400F7
:1005700003208DF8160018208DF8170005A9F04803
:1005800001F036FA4FF48060ADF8140004208DF8C5
:10059000170005A9EA4801F02BFA25208DF8000084
:1005A00003208DF801008DF8020001208DF8030072
:1005B000684601F054F901940020ADF80800ADF848
:1005C0000A00ADF80C00ADF810000C20ADF80E00DC
:1005D00001A9DC4801F06FFD012240F22551D94804
:1005E00001F001FE0121D74801F0F1FD4021D5487D
:1005F00001F0D5FE06B010BD10B586B0044601214D
:10060000042001F0B1FC0121480401F0BAFC0220F1
:10061000ADF8140003208DF8160010208DF8170097
:1006200005A9C74801F0E4F90420ADF8140003203F
:100630008DF8160018208DF8170005A9C04801F0A4
:10064000D7F90820ADF8140004208DF8170005A98B
:10065000BB4801F0CDF925208DF8000003208DF86E
:1006600001008DF8020001208DF80300684601F0BA
:10067000F6F801940020ADF80800ADF80A00ADF8D6
:100680000C00ADF810000C20ADF80E0001A9AB482D
:1006900001F011FD012240F22551A84801F0A3FD0F
:1006A0000121A64801F093FD06B010BD10B540F23F
:1006B0002551A44801F07CFE00281ED040F22551AF
:1006C000A04801F09FFE9F4801F0F2FD9E4908708E
:1006D0009E48007890B9084600782C280ED1012059
:1006E0009A49087098480178994802780078401C27
:1006F000974B1870974820F812107BE093480078C9
:10070000012812D19048007812280ED102208F497A
:1007100008708D4801788E4802780078401C8C4B18
:1007200018708C4820F8121064E08848007802287D
:1007300021D185480178864802780078401C844B96
:100740001870844820F81210184600780A2803DA36
:100750007D4800785B284DD103207C49087001203A
:100760007D4908707A480078801E7A4911F8100097
:100770007A4908703EE07548007803282BD1744808
:100780000078401E734931F810005B2813D1002215
:1007900040F225516B4801F026FD00206E4908709B
:1007A0006B49087069490870012240F2255165487B
:1007B00001F019FD1EE000206449087064490870CA
:1007C000002405E00020634921F81400601CC4B235
:1007D0000A2CF7DB0EE000205C4908705C490870C9
:1007E000002405E000205B4921F81400601CC4B21D
:1007F0000A2CF7DB10BD10B50446302C7ED2DFE8A2
:1008000014F06D008800C600DF00F3000C01250124
:100810003E01570170018901A201BB01D401ED0124
:1008200006021F02380251026A0283029C02B502CC
:1008300077039003A903C203DB03F4030D0426042A
:100840003F04580472048B04A4047D007D007D00E5
:100850007D007D007D007D007D007D003000460034
:10086000570000F0E5FD46220A21302000F0D7FEB7
:1008700047220A21402000F0D2FE48220A215020BF
:1008800000F0CDFE40F6B830FFF72BFE09E200F095
:10089000CFFD49220A21302000F0C1FE4A220A2160
:1008A000402000F0BCFE40F6B830FFF71AFEEDE73E
:1008B00000F0BEFD4B220A21302000F0B0FE4C2299
:1008C0000A21402000F0ABFE48220A21502000F00F
:1008D000A6FE40F6B830FFF704FED7E700F0A8FD0B
:1008E00000220A21302000F09AFE01220A21402035
:1008F00000F095FE02220A21502000E0F2E300F011
:100900008EFE17A001F09AFD40F6B830FFF7E9FD22
:10091000BCE700F08DFD03220A21302000F07FFEAD
:1009200004220A21402000F07AFE05220A215020EC
:1009300000F075FE0FA001F081FD23E000440040AF
:1009400000080140003801401A0000202700002064
:1009500026000020A80A0020280000201B000020FC
:10096000C4B0C9FAC8CBA3ACBDFBD6B9BDF8C8EBBF
:1009700000000000D1EEBAC6C8BBA3ACC7EBBDF8FF
:10098000C8EB000040F6B830FFF7ABFD7EE700F0A3
:100990004FFD06220A21302000F041FE07220A21E5
:1009A000402000F03CFE08220A21502000F037FED3
:1009B000FBA001F043FD40F6B830FFF792FD65E77C
:1009C00000F036FD09220A21302000F028FE0A221C
:1009D0001146402000F023FEF5A001F02FFD40F667
:1009E000B830FFF77EFDEEE300F022FD09220A2178
:1009F000302000F014FE0B220A21402000F00FFEF0
:100A00000C220A21502000F00AFEEDA001F016FD94
:100A100040F6B830FFF765FDD5E300F009FD0D2283
:100A20000A21302000F0FBFD0E220A21402000F0B8
:100A3000F6FD0F220A21502000F0F1FDE4A001F0A4
:100A4000FDFC40F6B830FFF74CFDBCE300F0F0FCD5
:100A500022220A21302000F0E2FD23220A21402038
:100A600000F0DDFD24220A21502000F0D8FDDCA09A
:100A700001F0E4FC40F6B830FFF733FDA3E300F0EB
:100A8000D7FC27220A21302000F0C9FD28220A21A4
:100A9000402000F0C4FD29220A21502000F0BFFDB3
:100AA000D3A001F0CBFC40F6B830FFF71AFD8AE383
:100AB00000F0BEFC25220A21302000F0B0FD2622E5
:100AC0000A21402000F0ABFD06220A21502000F050
:100AD000A6FDCBA001F0B2FC40F6B830FFF701FD57
:100AE00071E300F0A5FC17220A21302000F097FDE9
:100AF0002D220A21402000F092FD2E220A215020B2
:100B000000F08DFDC2A001F099FC40F6B830FFF76F
:100B1000E8FC58E300F08CFC2F220A21302000F082
:100B20007EFD30220A21402000F079FD31220A2189
:100B3000502000F074FDBAA001F080FC40F6B830FF
:100B4000FFF7CFFC3FE300F073FC32220A21302094
:100B500000F065FD33220A21402000F060FD1322E1
:100B60000A21502000F05BFDB1A001F067FC40F6C7
:100B7000B830FFF7B6FC26E300F05AFC14220A2135
:100B8000302000F04CFD15220A21402000F047FDE6
:100B900016220A21502000F042FDA9A001F04EFCCF
:100BA00040F6B830FFF79DFC0DE300F041FC2A222F
:100BB0000A21302000F033FD08220A21402000F0F5
:100BC0002EFD2B220A21502000F029FDA0A001F0CB
:100BD00035FC40F6B830FFF784FCF4E200F028FC66
:100BE00017220A21302000F01AFD18220A21402085
:100BF00000F015FD19220A21502000F010FD98A0E8
:100C000001F01CFC40F6B830FFF76BFCDBE200F0B3
:100C10000FFC03220A21302000F001FD10220A21DE
:100C2000402000F0FCFC11220A21502000F0F7FCCB
:100C30008FA001F003FC40F6B830FFF752FCC2E28F
:100C400000F0F6FB1A220A21302000F0E8FC1B22FB
:100C50000A21402000F0E3FC1C220A21502000F071
:100C6000DEFC87A001F0EAFB40F6B830FFF739FC64
:100C7000A9E200F0DDFB1A220A21302000F0CFFCAF
:100C80001B220A21402000F0CAFC1C220A2150200D
:100C900000F0C5FC7EA001F0D1FB40F6B830FFF7B4
:100CA00020FC90E200F0C4FB03220A21302000F077
:100CB000B6FC12220A21402000F0B1FC13220A21C6
:100CC000502000F0ACFC76A001F0B8FB40F6B83044
:100CD000FFF707FC77E200F0ABFB34220A2130205B
:100CE00000F09DFC35220A21402000F098FC3622BD
:100CF0000A21502000F093FC6DA001F09FFB40F60C
:100D0000B830FFF7EEFB5EE200F092FB37220A21DB
:100D1000302000F084FC38220A21402000F07FFCC3
:100D200039220A21502000F07AFC65A001F086FBF0
:100D300040F6B830FFF7D5FB45E200F079FB3A22E8
:100D40000A21302000F06BFC3B220A21402000F0F9
:100D500066FC3C220A21502000F061FC5CA001F0FE
:100D60006DFB40F6B830FFF7BCFB2CE200F060FBF7
:100D70003D220A21302000F052FC41220A2140206D
:100D800000F04DFC42220A21502000F048FC54A003
:100D900001F054FB40F6B830FFF7A3FB13E200006C
:100DA000D7BFBCCECEB0A3ACC7EBBDF8C8EB00003C
:100DB000D5C5B3CCA3ACC7EBBDF8C8EB00000000B1
:100DC000D5C5D6BEC1FAA3ACC7EBBDF8C8EB0000D1
:100DD000CDBFE4C6D3A2A3ACC7EBBDF8C8EB0000FF
:100DE000B6ADCFFEC1FAA3ACC7EBBDF8C8EB0000AF
:100DF000B6A1D3F1CFF4A3ACC7EBBDF8C8EB0000AC
:100E0000C0B5B3BFD7BFA3ACC7EBBDF8C8EB0000FC
:100E1000C1D6B5C7D1D7A3ACC7EBBDF8C8EB0000AE
:100E2000C2DED3F1B4BAA3ACC7EBBDF8C8EB000087
:100E3000C1F5C6E4B1F3A3ACC7EBBDF8C8EB000045
:100E4000D0EDCCABC8D9A3ACC7EBBDF8C8EB000064
:100E5000CEE2CEB0EACFA3ACC7EBBDF8C8EB000042
:100E6000C1D6B1FED2BBA3ACC7EBBDF8C8EB000046
:100E7000D1EEB1F2BBD4A3ACC7EBBDF8C8EB000018
:100E8000C1BABCD2E7F7A3ACC7EBBDF8C8EB000012
:100E9000CEE2D3FDEDAEA3ACC7EBBDF8C8EB0000CE
:100EA000D1EEC1BCB1F3A3ACC7EBBDF8C8EB0000F9
:100EB000D0ECD5DCD4B6A3ACC7EBBDF8C8EB0000D2
:100EC000C0B5CBC9CCCEA3ACC7EBBDF8C8EB000016
:100ED000CCC6B0B2C5E0A3ACC7EBBDF8C8EB000010
:100EE000B7BDC1A2B6B0A3ACC7EBBDF8C8EB00005C
:100EF00000F09EFA43220A21302000F090FB4422A9
:100F00000A21402000F08BFB45220A21502000F0EE
:100F100086FBAEA001F092FA40F6B830FFF7E1FA96
:100F200051E100F085FA1A220A21302000F077FB07
:100F300019220A21402000F072FB17220A215020BA
:100F400000F06DFBA5A001F079FA40F6B830FFF78C
:100F5000C8FA38E100F06CFA22220A21302000F0B1
:100F60005EFB2B220A21402000F059FB2C220A2193
:100F7000502000F054FB9DA001F060FA40F6B8301C
:100F8000FFF7AFFA1FE100F053FA2A220A213020BE
:100F900000F045FB2E220A21402000F040FB3122C8
:100FA0000A21502000F03BFB94A001F047FA40F6E4
:100FB000B830FFF796FA06E100F03AFA2F220A213C
:100FC000302000F02CFB33220A21402000F027FBC8
:100FD00038220A21502000F022FB8CA001F02EFACA
:100FE00040F6B830FFF77DFAEDE000F021FA092273
:100FF0000A21302000F013FB0C220A21402000F0CF
:101000000EFB0E220A21502000F009FB83A001F004
:1010100015FA40F6B830FFF764FAD4E000F008FAA9
:101020000D220A21302000F0FAFA0C220A21402079
:1010300000F0F5FA13220A21502000F0F0FA7BA00C
:1010400001F0FCF940F6B830FFF74BFABBE000F0D6
:10105000EFF927220A21302000F0E1FA39220A2193
:10106000402000F0DCFA3A220A21502000F0D7FAA2
:1010700072A001F0E3F940F6B830FFF732FAA2E0CF
:1010800000F0D6F93E220A21302000F0C8FA3F22B3
:101090000A21402000F0C3FA40220A21502000F02B
:1010A000BEFA4CA001F0CAF940F6B830FFF719FAC1
:1010B00089E000F0BDF93E220A21302000F0AFFAAD
:1010C0003F220A21402000F0AAFA40220A215020A3
:1010D00000F0A5FA3FA001F0B1F940F6B830FFF7F3
:1010E00000FA70E04AE000F0A3F93E220A21302025
:1010F00000F095FA3F220A21402000F090FA4022A9
:101100000A21502000F08BFA32A001F097F940F646
:10111000B830FFF7E6F956E000F08AF93E220A21DE
:10112000302000F07CFA3F220A21402000F077FABC
:1011300040220A21502000F072FA26A001F07EF928
:1011400040F6B830FFF7CDF93DE000F071F93E22EE
:101150000A21302000F063FA3F220A21402000F0EB
:101160005EFA40220A21502000F059FA19A001F03D
:1011700065F940F6B830FFF7B4F924E000F058F90B
:101180001D220A21102000F04AFA1E220A212020E6
:1011900000F045FA1F220A21302000F040FA2022F8
:1011A0000A21402000F03BFA02220A21502000F0E0
:1011B00036FA21220A21602000F031FA40F6B830D8
:1011C000FFF78FF900BF00BF10BD0000D6A3F0A944
:1011D000CEC4A3ACC7EBBDF8C8EB0000B5D4D3F1C7
:1011E000C1D6A3ACC7EBBDF8C8EB0000CDF5D2ABC0
:1011F000BAE8A3ACC7EBBDF8C8EB0000D4ADB3BFF1
:10120000BEB0A3ACC7EBBDF8C8EB0000D5C5D4C3D6
:10121000B1F3A3ACC7EBBDF8C8EB0000CCC6C6D594
:10122000F2A1A3ACC7EBBDF8C8EB0000B9F9CEB092
:10123000C3FAA3ACC7EBBDF8C8EB0000C0EED1D237
:10124000EEECA3ACC7EBBDF8C8EB000010B5202155
:10125000F94800F07AFC8021F74800F076FC802104
:10126000F54800F074FC2021F34800F070FC10BD3C
:1012700010B52021F04800F068FC8021EE4800F015
:1012800066FC8021EC4800F060FC10BD10B5202108
:10129000E94800F05AFC2021E74800F058FC10BD56
:1012A0002DE9F04105462C462021E34800F04FFC93
:1012B000002619E0274607F08007802F04D18021FF
:1012C000DD4800F042FC03E08021DB4800F03FFCF9
:1012D0006006040E2021D84800F037FC2021D648B3
:1012E00000F035FC701CC6B2082EE3DBBDE8F081CF
:1012F00010B50446FFF7AAFF7820FFF7D1FFFFF7EC
:10130000C5FF0020FFF7CCFFFFF7C0FF2046FFF727
:10131000C7FFFFF7BBFFFFF7ABFF10BD10B50446DB
:10132000FFF794FF7820FFF7BBFFFFF7AFFF4020E8
:10133000FFF7B6FFFFF7AAFF2046FFF7B1FFFFF761
:10134000A5FFFFF795FF10BD70B504460D461DB112
:10135000E0B2FFF7E3FF02E0E0B2FFF7C9FF70BDC4
:1013600070B50646002418E004F1B0000021FFF734
:10137000EBFF00210846FFF7E7FF00211020FFF7F1
:10138000E3FF002505E001213046FFF7DDFF681C83
:10139000C5B2802DF7DB601CC4B2082CE4DB70BD45
:1013A00006E041F6650100E0491E0029FCD1401E1F
:1013B0000028F6D17047014605E0002001E0421CFC
:1013C000D0B27B28FBDB0A1EA1F10101F5D17047E9
:1013D00070B504460D4605F1B0000021FFF7B4FFDB
:1013E000102141EA14100021FFF7AEFF04F00F00B6
:1013F0000021FFF7A9FF70BD10B500218D20FFF778
:10140000A3FF00211420FFF79FFF0021AF20FFF76B
:101410009BFF10BD10B500218D20FFF795FF002127
:101420001020FFF791FF0021AE20FFF78DFF10BDC8
:1014300070B5002418E004F1B0000021FFF784FF2C
:1014400000210846FFF780FF00211020FFF77CFFF6
:10145000002505E001210020FFF776FF681CC5B2DA
:10146000802DF7DB601CC4B2082CE4DB70BD70B5C6
:10147000002418E004F1B0000021FFF765FF00210F
:101480000846FFF761FF00211020FFF75DFF0025F0
:1014900005E001210846FFF757FF681CC5B2802D03
:1014A000F7DB601CC4B2082CE4DB70BD2DE9F0470B
:1014B00007460E469046994600250024A8F12000D4
:1014C000C5B27F2F02DD0027B01CC6B2B9F1100FE4
:1014D00024D131463846FFF77BFF002408E004EBB7
:1014E0000511564A505C0121FFF72EFF601CC4B263
:1014F000082CF4DB701CC1B23846FFF769FF0024EA
:1015000009E004EB051108314C4A505C0121FFF75A
:101510001BFF601CC4B2082CF3DB12E031463846D6
:10152000FFF756FF00240AE005EB4501444A02EBB1
:101530004101085D0121FFF707FF601CC4B2062CC2
:10154000F2DBBDE8F08710B50246012000E0504311
:101550000B1EA1F10104E1B2F9D110BD2DE9FF5F2D
:10156000074691461E460E9D4FF0000A002435E0C6
:10157000301B401EC1B20A20FFF7E5FFB9FBF0F0B7
:101580000A21B0FBF1F201FB1208BAF1000F14D1ED
:10159000701EA04211DDB8F1000F0CD1AB4605EB77
:1015A000DB71491001FB0471C8B22B46202201995E
:1015B000FFF77CFF10E04FF0010AAB4605EBDB7153
:1015C000491001FB0471C8B208F13001CAB22B46C0
:1015D0000199FFF76BFF00BF601CC4B2B442C7DBC8
:1015E000BDE8FF9F2DE9F04104460F461546984699
:1015F00000260FE0AA5D434639462046FFF756FF16
:1016000004F10800C4B2782C02DD0024B81CC7B273
:10161000701CC6B2A85D0028ECD1BDE8F0812DE9B0
:10162000F04180460E461546002731464046FFF7FA
:10163000CFFE002411E00000000801406C270008E4
:1016400044250008714A02EB4511085D0121FFF7AE
:101650007BFE781CC7B2601CC4B2102CF2DB701C7D
:10166000C1B24046FFF7B4FE00240CE06900491CFB
:10167000664A02EB0111085D0121FFF765FE781C47
:10168000C7B2601CC4B2102CF0DBBDE8F0812DE9BC
:10169000F05F06460F4690461C46DDF828A04FF046
:1016A000000BE11704EB5171C910A4EBC10131B972
:1016B0002046E11704EB5171C1F3C70506E020464F
:1016C000E11704EB5171C910491CCDB23D4615E03C
:1016D00029463046FFF77CFEB1460BE059460BF138
:1016E000010B1AF801000121FFF72EFE09F101009C
:1016F00000F0FF09C145F1DB681CC5B2A542E7DB7C
:10170000BDE8F09F08B50121042000F02DFCA020C9
:10171000ADF8000010208DF8030003208DF80200C2
:1017200069463B4800F064F9A021394800F00DFA01
:101730000021AE20FFF708FE00210846FFF704FE57
:1017400000211020FFF700FE00214020FFF7FCFDE4
:101750000021B020FFF7F8FD00218120FFF7F4FD04
:101760000021FF20FFF7F0FD0021A120FFF7ECFD95
:101770000021A620FFF7E8FD0021A820FFF7E4FDE7
:1017800000213F20FFF7E0FD0021C820FFF7DCFD2E
:101790000021D320FFF7D8FD00210846FFF7D4FD34
:1017A0000021D520FFF7D0FD00218020FFF7CCFDE0
:1017B0000021D820FFF7C8FD00210520FFF7C4FD58
:1017C0000021D920FFF7C0FD0021F120FFF7BCFD6B
:1017D0000021DA20FFF7B8FD00211220FFF7B4FD49
:1017E0000021DB20FFF7B0FD00213020FFF7ACFD2A
:1017F00000218D20FFF7A8FD00211420FFF7A4FD94
:101800000021AF20FFF7A0FD08BD00002900002047
:10181000000801400948804709480047FEE7FEE705
:10182000FEE7FEE7FEE7FEE7FEE7FEE7FEE7FEE790
:1018300004480549054A064B704700006703000845
:1018400031010008200B002020110020200D002075
:10185000200D002031490143314A1160704770B5B5
:10186000002100230F22C47804B32D4C246804F413
:10187000E064C4F5E064210AC1F10403CA4044787D
:1018800004FA03F18478144021430901254C0678B9
:10189000A155047804F01F050124AC4005786D11B2
:1018A000AD0005F1E025C5F8004109E0047804F039
:1018B0001F050124AC401C4D0678761145F82640E2
:1018C00070BD1A4A0A400243154B1B1F1A6070472D
:1018D00039B1134A121D12680243114B1B1D1A60C5
:1018E00006E00F4A121D126882430D4B1B1D1A6041
:1018F0007047042808D14FF0E021096941F0040144
:101900004FF0E022116107E04FF0E021096921F07A
:1019100004014FF0E0221161704700000000FA0559
:101920000CED00E000E400E080E100E080FFFF1F3C
:1019300010B50446CC48844208D10121042000F0AF
:101940002DFB0021042000F029FB46E0C74884421B
:1019500008D10121082000F021FB0021082000F01F
:101960001DFB3AE0C248844208D10121102000F05A
:1019700015FB0021102000F011FB2EE0BD48844231
:1019800008D10121202000F009FB0021202000F0D7
:1019900005FB22E0B848844208D10121402000F034
:1019A000FDFA0021402000F0F9FA16E0B348844225
:1019B00008D10121802000F0F1FA0021802000F000
:1019C000EDFA0AE0AE48844207D10121801500F00B
:1019D000E5FA0021A01500F0E1FA10BD10B50121D3
:1019E000084600F0DBFA0021012000F0D7FA10BD14
:1019F0002DE9F041024600250026002000230024A6
:101A0000002791F803C00CF00F0591F803C00CF00B
:101A1000100CBCF1000F03D091F802C04CEA050590
:101A200091F800C0BCF1000F31D0146800202BE009
:101A30004FF0010C0CFA00F3B1F800C00CEA0306F9
:101A40009E4220D183004FF00F0C0CFA03F7BC43E9
:101A500005FA03FC4CEA040491F803C0BCF1280F1A
:101A600006D14FF0010C0CFA00FCC2F814C00AE0D9
:101A700091F803C0BCF1480F05D14FF0010C0CFAEE
:101A800000FCC2F810C0401C0828D1D31460B1F883
:101A900000C0BCF1FF0F34DD546800202EE000F1DF
:101AA000080C4FF0010808FA0CF3B1F800C00CEA7A
:101AB00003069E4221D183004FF00F0C0CFA03F76E
:101AC000BC4305FA03FC4CEA040491F803C0BCF1E2
:101AD000280F05D100F1080C08FA0CF8C2F81480A0
:101AE00091F803C0BCF1480F07D100F1080C4FF08A
:101AF000010808FA0CF8C2F81080401C0828CED360
:101B00005460BDE8F0814FF6FF71018002218170C1
:101B10000421C17070470246002093680B400BB14E
:101B2000012000E0002070470146886880B27047BD
:101B300002460020D3680B400BB1012000E00020DA
:101B400070470146C86880B27047016170474161C3
:101B500070470AB1016100E041617047C1607047A0
:101B60004FF480320A4382618161826182698269B5
:101B7000704702460020434B18684FF680731840A8
:101B800040EA021008433F4B186070473E49C86165
:101B90007047F0B50A46002300240021002500F01C
:101BA0000046B6F1004F02D1364EF16901E0354EE4
:101BB0007168C0F3034583B200F44016B6F5401FC8
:101BC00008D121F070612F4E766826F070662D4F97
:101BD0007E6012E000F48016B6F5801F06D1032661
:101BE00006FA05F4A14341F0706106E0460D3601A6
:101BF00003FA06F6B14341F0706122B1460D360199
:101C000003FA06F6314300F00046B6F1004F02D168
:101C10001C4EF16101E01B4E7160F0BD30B5002239
:101C20008B071C0F0F2303FA04F2164B08338C109A
:101C300053F824309343134C08348D1044F8253066
:101C400023468C1053F824308C07240F00FA04F438
:101C500023430C4C08348D1044F8253030BD0A491C
:101C6000DC3108607047000000080140000C0140B2
:101C7000001001400014014000180140001C014008
:101C8000002001400000014000002042DF480068C1
:101C900040F00100DD49086008464068DC49084022
:101CA000DA49486008460068DA490840D7490860C0
:101CB0000846006820F4802008600846406820F448
:101CC000FE0048604FF41F0088607047CF490968E4
:101CD00021F48031CD4A11601146096821F4802138
:101CE0001160B0F5803F03D0B0F5802F0ED106E033
:101CF000C649096841F48031C44A116007E0C3490C
:101D0000096841F4A021C14A116000E000BF00BF92
:101D1000704710B501460022002300204A11012A15
:101D200002D1BA4C236806E0022A02D1B74C236ADA
:101D300001E0B64C636A01F01F02012494401C408C
:101D40000CB1012000E0002010BD38B5002000904B
:101D50000024002500BF3120FFF7DBFF0546009877
:101D6000401C00900098B0F5A06F01D0002DF2D07B
:101D70003120FFF7CEFF08B1012400E00024204607
:101D800038BD01460020A14A106820F0F80040EA62
:101D9000C10010607047A0490860704702460020EB
:101DA0009A4B586820F47C1042EA01031843974B81
:101DB0005860704798490866704701460020934A6A
:101DC000506820F003000843506070478F48406817
:101DD00000F00C007047014600208C4A506820F04B
:101DE000F00008435060704701460020874A506861
:101DF00020F4E06008435060704701460020834AA9
:101E0000506820F4605040EAC1005060704729B12A
:101E10007E4A527A02437D4B5A7204E07B4A527AE0
:101E200082437A4B5A7270477B49D83108607047B9
:101E300001460020754A506820F440400843506035
:101E400070470021714A20321170704A82F82010C8
:101E5000012802D004280AD104E001216B4A203273
:101E6000117005E00521694A2032117000E000BFC1
:101E700000BF70476949086070476449096A0143B7
:101E8000624A11627047654944390860704730B54D
:101E900000210022002400235C4D6D6805F00C0138
:101EA00021B1042905D0082923D105E05C4D056046
:101EB00022E05B4D05601FE0544D6D6805F4701223
:101EC000524D6D6805F48034022505EB92421CB931
:101ED000544D554305600BE04C4D6D6805F40035DD
:101EE0001DB1504D5543056002E04D4D5543056011
:101EF00002E04B4D056000BF00BF444D6D6805F02A
:101F0000F0010909484D6B5C0568DD4045603F4DB7
:101F10006D6805F4E061090A434D6B5C4568DD407E
:101F200085603A4D6D6805F46051C90A3E4D6B5CA1
:101F30004568DD40C560354D6D6805F44041890B4D
:101F40003A4D6B5CC568B5FBF3F5056130BD29B151
:101F50002E4A526902432D4B5A6104E02B4A5269C2
:101F600082432A4B5A61704729B1284A9269024339
:101F7000264B9A6104E0254A92698243234B9A6179
:101F8000704729B1214AD2690243204BDA6104E04B
:101F90001E4AD26982431D4BDA61704729B11B4A40
:101FA000D2680243194BDA6004E0184AD2688243CF
:101FB000164BDA60704729B1144A12690243134B79
:101FC0001A6104E0114A12698243104B1A6170478A
:101FD00012494039086070470F49C86470470B497F
:101FE000C87170470948406A40F0807007494862EC
:101FF000704701460020054A92680A400AB1012054
:1020000000E00020704701498872704700100240CC
:102010000000FFF8FFFFF6FE00004242800442424B
:1020200000127A0000093D00C9090020D9090020EA
:1020300010B50446FB48844209D101218803FFF70B
:10204000ADFF00214FF48040FFF7A8FF32E0F648D3
:10205000844209D101214804FFF7ADFF00214FF46C
:102060000030FFF7A8FF25E0F048844209D10121A4
:102070008804FFF7A0FF00214FF48020FFF79BFFAB
:1020800018E0EB48844209D10121C804FFF793FF0F
:1020900000214FF40020FFF78EFF0BE0E54884425B
:1020A00008D101210805FFF786FF00214FF48010B9
:1020B000FFF781FF10BD2DE9F04786B005460E46BB
:1020C0000024A24600BFA1460027B08900B100BF8E
:1020D0002F462C8A4CF6FF700440F08804432C8273
:1020E000AC894EF6F3100440B088318908437189F9
:1020F00008430443AC81AC8A4FF6FF400440B089EA
:102100000443AC8201A8FFF7C2FEC648874202D151
:10211000DDF810A001E0DDF80CA0A88900F4004073
:1021200040B10AEBCA0000EB0A1031684900B0FB6D
:10213000F1F807E00AEBCA0000EB0A1031688900E9
:10214000B0FBF1F86420B8FBF0F004012009642131
:1021500001FB1089A88900F4004040B1322000EB57
:10216000C900B0FBF1F000F00700044308E03220A2
:1021700000EB09106421B0FBF1F000F00F00044304
:102180002C8106B0BDE8F0874FF4165101600021A4
:102190008180C18001810C214181002181817047B2
:1021A00010B502460020108A4FF2FF0318400B883A
:1021B0004C8823438C882343CC88234318431082C4
:1021C00010BD0021018041808180C180704721B114
:1021D000828942F40052828104E082894DF6FF73C5
:1021E0001A4082817047F0B503460024002600257E
:1021F000002040F66A17B94200D100BF1846C1F36B
:10220000421401F01F06012707FA06F5012C01D13F
:102210000C3004E0022C01D1103000E014301AB16F
:1022200007682F43076002E00768AF430760F0BD0F
:102230001AB1838A0B43838202E0838A8B438382B1
:102240007047028A4FF6F0731A400282028A0A43EC
:102250000282704782894FF2FF731A40828182891D
:102260000A438281704721B1828942F00202828151
:1022700004E082894FF6FD731A4082817047028A1A
:102280004FF6DF731A400282028A0A4302827047C5
:1022900021B1028A42F48042028204E0028A4BF6B3
:1022A000FF731A4002827047C1F3080282807047B0
:1022B00001468888C0F308007047818941F0010118
:1022C00081817047028BD2B20283028B42EA0122E3
:1022D00002837047028B02F47F420283028B0A431F
:1022E0000283704721B1828A42F02002828204E098
:1022F000828A4FF6DF731A408282704721B1828A48
:1023000042F01002828204E0828A4FF6EF731A4094
:102310008282704721B1828A42F00802828204E000
:10232000828A4FF6F7731A408282704721B1828900
:1023300042F40042828103E08289C2F30E0282816C
:10234000704721B1828A42F40062828204E0828A6C
:102350004FF2FF731A4082827047828A4FF6FB73F6
:102360001A408282828A0A438282704721B1828A1D
:1023700042F00202828204E0828A4FF6FD731A4024
:102380008282704702460020B1F5007F00D100BF75
:1023900013880B400BB1012000E00020704701F4CE
:1023A0000072B2F5007F00D100BFCA4302807047BF
:1023B00070B50246002400230025002040F66A166E
:1023C000B14200D100BFC1F3421501F01F03012645
:1023D00006FA03F3012D02D19689334006E0022D5F
:1023E00002D1168A334001E0968A33400C1201264E
:1023F00006FA04F41688344013B10CB1012000E051
:10240000002070BD10B50022002340F66A14A142DE
:1024100000D100BF0A1201249440A3B2DC4304801F
:1024200010BD00000038014000440040004800405A
:10243000004C004000500040704700000FB40449B9
:1024400010B503AA029800F009F810BC5DF814FB5F
:10245000200000207047704770477047074B70B5E9
:102460000D467B4400F011F80446284600F020F8A1
:1024700010B14FF0FF3070BD204670BDDBE0FFFFB4
:1024800001694A1C02610878704700B58FB0CDE938
:1024900001310021059105497944CDE90310114628
:1024A000684600F02EF80FB000BD0000E5FFFFFF0A
:1024B000007B00F080007047754600F03FF8AE46A4
:1024C00005006946534620F00700854618B020B540
:1024D000FFF7AEF9BDE820404FF000064FF00007CF
:1024E0004FF000084FF0000B21F00701AC46ACE8BC
:1024F000C009ACE8C009ACE8C009ACE8C0098D4629
:1025000070472DE9F04106460024D6E90170F568D0
:102510008046304603E04146B847641C3046A84731
:102520000028F8D12046BDE8F08110B50446AFF38D
:1025300000802046BDE81040FDF765BE00487047AA
:10254000BC0A00200000000000000000002F000076
:1025500000000700070000147F147F1400242A7F66
:102560002A120062640813230036495522500000E5
:102570000503000000001C224100000041221C0055
:102580000014083E08140008083E0808000000A0D7
:1025900060000008080808080000606000000020D3
:1025A00010080402003E5149453E0000427F4000B1
:1025B000004261514946002141454B310018141237
:1025C0007F10002745454539003C4A494930000104
:1025D0007109050300364949493600064949291E53
:1025E00000003636000000005636000000081422B5
:1025F00041000014141414140000412214080002B5
:102600000151090600324959513E007C1211127CD9
:10261000007F49494936003E41414122007F414106
:10262000221C007F49494941007F09090901003EF8
:102630004149497A007F0808087F0000417F410036
:10264000002040413F01007F08142241007F4040AC
:102650004040007F020C027F007F0408107F003E94
:102660004141413E007F09090906003E4151215E7A
:10267000007F091929460046494949310001017F77
:102680000101003F4040403F001F2040201F003F0D
:102690004038403F006314081463000708700807BF
:1026A00000615149454300007F41410000552A55D2
:1026B0002A55000041417F0000040201020400404D
:1026C000404040400000010204000020545454786F
:1026D000007F48444438003844444420003844448F
:1026E000487F00385454541800087E09010200182D
:1026F000A4A4A47C007F080404780000447D40006A
:10270000004080847D00007F102844000000417F4D
:102710004000007C04180478007C08040478003829
:102720004444443800FC242424180018242418FCB1
:10273000007C0804040800485454542000043F441A
:102740004020003C4040207C001C2040201C003CDD
:102750004030403C004428102844001CA0A0A07C2D
:10276000004464544C441414141414140000000065
:10277000000000000000000000000000000000F861
:1027800000000000000000333000000000100C06C4
:10279000100C0600000000000000000040C078405F
:1027A000C0784000043F04043F040400007088FC2B
:1027B00008300000001820FF211E0000F008F00083
:1027C000E018000000211C031E211E0000F00888F4
:1027D000700000001E2123241927211010160E005E
:1027E000000000000000000000000000000000E009
:1027F000180402000000000718204000000204181E
:10280000E00000000040201807000000404080F079
:10281000804040000202010F01020200000000F0AF
:10282000000000000101011F010101000000000083
:102830000000000080B070000000000000000000F8
:102840000000000000010101010101010000000081
:102850000000000000303000000000000000000018
:1028600080601804006018060100000000E01008F5
:102870000810E000000F102020100F00001010F8CA
:10288000000000000020203F202000000070080809
:102890000888700000302824222130000030088889
:1028A000884830000018202020110E000000C020B1
:1028B00010F8000000070424243F240000F80888D2
:1028C000880808000019212020110E0000E010885F
:1028D00088180000000F112020110E000038080891
:1028E000C83808000000003F0000000000708808A1
:1028F00008887000001C222121221C0000E0100822
:102900000810E0000000312222110F00000000C07A
:10291000C000000000000030300000000000008017
:102920000000000000008060000000000000804007
:102930002010080000010204081020004040404020
:102940004040400004040404040404000008102073
:1029500040800000002010080402010000704808B8
:102960000808F0000000003036010000C030C82820
:10297000E810E0000718272423140B000000C038DB
:10298000E0000000203C23020227382008F8888855
:1029900088700000203F202020110E00C030080861
:1029A00008083800071820202010080008F8080838
:1029B0000810E000203F202020100F0008F8888831
:1029C000E8081000203F20202320180008F88888FD
:1029D000E8081000203F200003000000C030080875
:1029E0000838000007182020221E020008F80800FE
:1029F0000008F808203F210101213F20000808F8C5
:102A0000080800000020203F2020000000000808E7
:102A1000F8080800C08080807F00000008F888C0A7
:102A200028180800203F20012638200008F8080058
:102A300000000000203F20202020300008F8F8008F
:102A4000F8F80800203F003F003F200008F830C0A1
:102A50000008F808203F200007183F00E010080891
:102A60000810E0000F10202020100F0008F80808C0
:102A70000808F000203F210101010000E0100808D3
:102A80000810E0000F18242438504F0008F88888F8
:102A900088887000203F2000030C302000708808D8
:102AA000080838000038202121221C00180808F8E6
:102AB000080818000000203F2000000008F8080067
:102AC0000008F808001F202020201F000878880038
:102AD00000C83808000007380E010000F80800F8A8
:102AE0000008F800033C0700073C03000818688052
:102AF0008068180820302C03032C30200838C800C8
:102B0000C83808000000203F200000001008080816
:102B1000C83808002038262120201800000000FEB8
:102B2000020202000000007F40404000000C30C064
:102B300000000000000000010638C0000002020290
:102B4000FE000000004040407F0000000000040242
:102B5000020204000000000000000000000000006D
:102B6000000000008080808080808080000202045D
:102B70000000000000000000000000000000808055
:102B8000808000000019242222223F2008F80080C3
:102B900080000000003F112020110E000000008086
:102BA00080800000000E1120202011000000008015
:102BB0008088F800000E112020103F200000808047
:102BC00080800000001F222222221300008080F05B
:102BD000888888180020203F202000000000808086
:102BE00080808000006B94949493600008F80080CB
:102BF00080800000203F210000203F200080989826
:102C0000000000000020203F202000000000008085
:102C10009898000000C08080807F000008F80000C5
:102C200080808000203F24022D302000000808F81A
:102C3000000000000020203F2020000080808080D5
:102C400080808000203F20003F20003F8080008067
:102C500080800000203F210000203F200000808075
:102C600080800000001F202020201F008080008026
:102C70008000000080FFA12020110E0000000080D5
:102C800080808000000E112020A0FF8080808000C6
:102C90008080800020203F212000010000008080F3
:102CA000808080000033242424241900008080E0E8
:102CB000808000000000001F2020000080800000B5
:102CC00000808000001F202020103F208080800096
:102CD0000080808000010E300806010080800080A6
:102CE000008080800F300C030C300F0000808000CB
:102CF000808080000020312E0E31200080808000F6
:102D00000080808080818E701806010000808080A5
:102D1000808080000021302C222130000000000043
:102D2000807C020200000000003F404000000000E4
:102D3000FF00000000000000FF0000000002027C15
:102D4000800000000040403F00000000000601013C
:102D50000202040400000000000000007C2D0008B6
:102D600000000020E00900006C0100081035000898
:102D7000E009002040070000D0010008500600A232
:102D80004A040001500901020304060708090FA0C4
:102D900004636300012019FE0222DA0600E22232F7
:102DA0002E2222E2020000FF0810080700FF420165
:102DB000300DFF00008040301E101010FF10013059
:102DC00005000040401A327F06534040455004C081
:102DD0003FC00A1007804020100C03671033030C1B
:102DE00010204080001010D0FF90100042E2524AA4
:102DF000C64240C000040300FF0023108C4320188B
:102E00004780403F001060028C20908E8888FF88A9
:102E100001200B800004047E010000FC440112FC30
:102E2000AE10084020589724C43C4710103FD012E1
:102E30001410008068040221C008042371200423B8
:102E4000C408C2100BF05050505F525252F202BFF1
:102E500010090808080B090909FF04120B0C100AD5
:102E60000002020AEAAAAAAAAF0413EA0A21100F72
:102E7000824A2A1E0B4A8A7A02FA4B4A4AFAF01010
:102E80000A8060F80708484848FF04100448080012
:102E90007D12FF35141F0202FF020212221E0002E1
:102EA000E222223E8080FF80A09088868080000001
:102EB0004382423E26100540210608E1200B0024F3
:102EC00024A4FE2322003E22011119100C08060141
:102ED000FF0106404949497F0412419021D841DE53
:102EE0001288901406403800003C4534094C40409C
:102EF000700408300058155E1406F0101116D061E9
:102F00001540340D18064120103F4442414040789E
:102F100020340C0020102824E324281020202060D6
:102F20000C20110D41817F01050931002060064808
:102F300044C3444820140540404A72A217625AA074
:102F4000100D040404C44F4444F444444FC40C44DE
:102F500011008484444724140C070C14244744842F
:102F600084A02004001090054404088463A0120982
:102F7000C5141700814221100C004458C07FD0486E
:102F80002622E23AA222222A062F180D1F007F20B5
:102F900010131212FF12121211100800FC24242424
:102FA0002526054AFC51140CFF8141210305091116
:102FB00029454230141010901214F0102024A4243B
:102FC00020FF20222CD0280E19063940FE403F2237
:102FD000200F3040F0502409CC000020180F08F8D2
:102FE000AF2943115F12010122FF05430020015266
:102FF000FF083B0080614B13605F1408800084640D
:1030000024242F8541066812640040422222120ABD
:1030100006FF060A1222224240802987155F4A10C5
:1030200080331108E7140B03040800807000FF10C0
:1030300008E51322FE0412E2E0200618070810FF3C
:103040002110050146807F70B101E20001140E4895
:1030500050E21400209A423E8202FE00D01813442F
:10306000442524140D04FF040C15242444440010AA
:103070002C221404A465A625180624A4340C001AD6
:10308000240A29241452897F040A11B01404848468
:10309000FC862304FF201EFFB303180410301F26F4
:1030A0001009884F290909294F88A09A804011F0FA
:1030B0001807202010080402641B020480562040D8
:1030C0001700FCE8470404822C0B3F1088402319AA
:1030D00001010911250348043E22E29A2AF8DA1078
:1030E0000E008141310F4181413F00000F40DF2C34
:1030F00004004262990350045262C220100640C488
:1031000044447FAD5220201600171EFE8603180689
:10311000504C434C50F02C14807F0282FF004044FE
:1031200058414E60584740000222225D032EFA6348
:10313000031004222202B02EA06C032EFF74032E73
:10314000A0300311DF300BFC0088884F58245484D2
:10315000E49E0C0D1F103F8042320E02023E42429E
:10316000720003140A04E424FF24E414E8273E1B3D
:103170002CE02A240E130AFF0A13804F20100F1090
:10318000204F904004C05F55012E5F8F0419A0149A
:103190000B04FD85450D152525554D5A3DCC0340A5
:1031A000040202FE0755B541DA410C2302820132C6
:1031B000FE061D0F04424001137F40E3110C15A0D1
:1031C0002007A4A4AFA4A4F4061EE430031C0780C7
:1031D000403A02221A1E044C050A3202FBF2044352
:1031E0009E9201229E8E1D60035E4460032E446009
:1031F0000335001DA0032C05546344C8C0033500EB
:103200002DE0043F4645E0043C0F040424B4ACA484
:10321000A5A6A4A4A4B46404B40523FF0A01534AD8
:103220008AA4180C8A52225A4640475824528820B1
:103230001C070141404F59695F041C0669594F4002
:10324000412B051C0480884612031F0F102304160F
:10325000426F1805808048462319C42F2846200352
:1032600029011C0422BE62C5043D9F04040E2200F5
:103270008084844245493121110905030020094019
:10328000445454D454745F062F5444500430040200
:1032900001FEEF1AFE83180A0400082848890E88E8
:1032A00078B45940680820100906196000602D8123
:1032B0000439DD19DE21DF1D10051F482F9D052C67
:1032C0000509092F481005AC051088C433E0041E19
:1032D000011F06ADE0041E00DB031C06FF14148072
:1032E0007E6E042FF11170043C0600FD4444451F1E
:1032F0000611FE4D40042A20E419E73E208106080D
:103300000D1F3F40A0988780809FA0A0BC80404DAB
:10331000A0064C0A80601E00E00718608000054C83
:103320000B0320702C23202024386060051504171F
:10333000F45F0135001D80051DE20648050A528232
:103340007F5116FC2210045455FE051D6505100B17
:103350000040300F00FD45454547042AFD1E10087A
:10336000908C848484F58605340484948CA11C0993
:103370008446492810102C231E071DFA043DDC0446
:103380001C098094A48586A494843005140430100C
:103390000F4D7D01071DD0064C060808F8898E3FA9
:1033A000063E0861072B1807C31D3D0729CB2D3F9B
:1033B000052182377F54A03D3F05640900FF1515A4
:1033C0001555957F203E8041041D62071DC0061CD7
:1033D0000640201F2040CE031F404030035DC00741
:1033E0000C051001E21CE0C0073A30401C0510102B
:1033F00090109C031D04084ED00008400640404336
:103400005C40425E4060052007088868180FE8AB02
:103410004DE0076621C112307B1C06898EF88C8B2B
:10342000DA074D6908315F2DF9065D69084C09001E
:10343000F80C0B08F8A09E010819C1B4067F2121E1
:10344000217F00200A38C808090E0808C838601D06
:1034500000061C054020110A3E052F204000063DB5
:1034600020071DF5073309FA7F5D0007100541416C
:10347000417F041E41B0041F8080DC0362FE0639D8
:10348000201C0400407F27046D05045EF082041DAB
:1034900084043D3F052E0F4A0529AD17040FA06C8B
:1034A00004100C04E0061C052404140C41052D42F4
:1034B000051D9F0628067F818181F18F46F89B3C80
:1034C00007FF08090AC8082007480C10201F804081
:1034D0002116182641F8606E503F054E4000096ED7
:1034E000413F054A40601C04FE02F23E062EF840B1
:1034F000032DC0076C098047300F10270047A60432
:103500002DC1096DC5092C04020406260700000020
:0400000508000131BD
:00000001FF
